{
  "contractName": "Incubator",
  "abi": [
    {
      "constant": false,
      "inputs": [],
      "name": "renounceOwnership",
      "outputs": [],
      "payable": false,
      "stateMutability": "nonpayable",
      "type": "function"
    },
    {
      "constant": true,
      "inputs": [],
      "name": "owner",
      "outputs": [
        {
          "name": "",
          "type": "address"
        }
      ],
      "payable": false,
      "stateMutability": "view",
      "type": "function"
    },
    {
      "constant": false,
      "inputs": [
        {
          "name": "_newOwner",
          "type": "address"
        }
      ],
      "name": "transferOwnership",
      "outputs": [],
      "payable": false,
      "stateMutability": "nonpayable",
      "type": "function"
    },
    {
      "inputs": [],
      "payable": false,
      "stateMutability": "nonpayable",
      "type": "constructor"
    },
    {
      "anonymous": false,
      "inputs": [
        {
          "indexed": false,
          "name": "ProjectID",
          "type": "uint256"
        },
        {
          "indexed": false,
          "name": "projectName",
          "type": "string"
        }
      ],
      "name": "ProjectCreatedEvent",
      "type": "event"
    },
    {
      "anonymous": false,
      "inputs": [
        {
          "indexed": true,
          "name": "previousOwner",
          "type": "address"
        }
      ],
      "name": "OwnershipRenounced",
      "type": "event"
    },
    {
      "anonymous": false,
      "inputs": [
        {
          "indexed": true,
          "name": "previousOwner",
          "type": "address"
        },
        {
          "indexed": true,
          "name": "newOwner",
          "type": "address"
        }
      ],
      "name": "OwnershipTransferred",
      "type": "event"
    },
    {
      "constant": true,
      "inputs": [],
      "name": "getProjectCount",
      "outputs": [
        {
          "name": "",
          "type": "uint256"
        }
      ],
      "payable": false,
      "stateMutability": "view",
      "type": "function"
    },
    {
      "constant": true,
      "inputs": [
        {
          "name": "id",
          "type": "uint256"
        }
      ],
      "name": "getProject",
      "outputs": [
        {
          "name": "name",
          "type": "string"
        },
        {
          "name": "symbol",
          "type": "string"
        },
        {
          "name": "decimals",
          "type": "uint8"
        },
        {
          "name": "projectContractAddress",
          "type": "address"
        },
        {
          "name": "projectOwner",
          "type": "address"
        },
        {
          "name": "projectIncubatorOwner",
          "type": "address"
        }
      ],
      "payable": false,
      "stateMutability": "view",
      "type": "function"
    },
    {
      "constant": false,
      "inputs": [
        {
          "name": "_projectOwner",
          "type": "address"
        },
        {
          "name": "_incubatorOwnerAddress",
          "type": "address"
        },
        {
          "name": "_incubatorOwnerPercentageInProject",
          "type": "uint256"
        },
        {
          "name": "_ventureFusionOwnerAddress",
          "type": "address"
        },
        {
          "name": "_ventureFusionPercentageInProject",
          "type": "uint256"
        },
        {
          "name": "_name",
          "type": "string"
        },
        {
          "name": "_symbol",
          "type": "string"
        },
        {
          "name": "_decimals",
          "type": "uint8"
        }
      ],
      "name": "addNewProject",
      "outputs": [
        {
          "name": "newProjectID",
          "type": "uint256"
        },
        {
          "name": "projectAddress",
          "type": "address"
        },
        {
          "name": "projectName",
          "type": "string"
        }
      ],
      "payable": false,
      "stateMutability": "nonpayable",
      "type": "function"
    }
  ],
  "bytecode": "0x6080604052600060015534801561001557600080fd5b50336000806101000a81548173ffffffffffffffffffffffffffffffffffffffff021916908373ffffffffffffffffffffffffffffffffffffffff160217905550615621806100656000396000f3006080604052600436106200007f576000357c0100000000000000000000000000000000000000000000000000000000900463ffffffff1680630124650914620000845780633bcff3b0146200026d578063715018a6146200029b5780638da5cb5b14620002b5578063f0f3f2c8146200030f578063f2fde38b14620004d0575b600080fd5b3480156200009157600080fd5b50620001b5600480360381019080803573ffffffffffffffffffffffffffffffffffffffff169060200190929190803573ffffffffffffffffffffffffffffffffffffffff16906020019092919080359060200190929190803573ffffffffffffffffffffffffffffffffffffffff16906020019092919080359060200190929190803590602001908201803590602001908080601f0160208091040260200160405190810160405280939291908181526020018383808284378201915050505050509192919290803590602001908201803590602001908080601f0160208091040260200160405190810160405280939291908181526020018383808284378201915050505050509192919290803560ff16906020019092919050505062000516565b604051808481526020018373ffffffffffffffffffffffffffffffffffffffff1673ffffffffffffffffffffffffffffffffffffffff16815260200180602001828103825283818151815260200191508051906020019080838360005b838110156200022f57808201518184015260208101905062000212565b50505050905090810190601f1680156200025d5780820380516001836020036101000a031916815260200191505b5094505050505060405180910390f35b3480156200027a57600080fd5b506200028562000c9f565b6040518082815260200191505060405180910390f35b348015620002a857600080fd5b50620002b362000d05565b005b348015620002c257600080fd5b50620002cd62000e08565b604051808273ffffffffffffffffffffffffffffffffffffffff1673ffffffffffffffffffffffffffffffffffffffff16815260200191505060405180910390f35b3480156200031c57600080fd5b506200033d6004803603810190808035906020019092919050505062000e2d565b6040518080602001806020018760ff1660ff1681526020018673ffffffffffffffffffffffffffffffffffffffff1673ffffffffffffffffffffffffffffffffffffffff1681526020018573ffffffffffffffffffffffffffffffffffffffff1673ffffffffffffffffffffffffffffffffffffffff1681526020018473ffffffffffffffffffffffffffffffffffffffff1673ffffffffffffffffffffffffffffffffffffffff168152602001838103835289818151815260200191508051906020019080838360005b838110156200042557808201518184015260208101905062000408565b50505050905090810190601f168015620004535780820380516001836020036101000a031916815260200191505b50838103825288818151815260200191508051906020019080838360005b838110156200048e57808201518184015260208101905062000471565b50505050905090810190601f168015620004bc5780820380516001836020036101000a031916815260200191505b509850505050505050505060405180910390f35b348015620004dd57600080fd5b5062000514600480360381019080803573ffffffffffffffffffffffffffffffffffffffff169060200190929190505050620010dc565b005b600080606060008060009054906101000a900473ffffffffffffffffffffffffffffffffffffffff1673ffffffffffffffffffffffffffffffffffffffff163373ffffffffffffffffffffffffffffffffffffffff161415156200057957600080fd5b8b8b8b8b8b8b8b8b6200058b62001241565b808973ffffffffffffffffffffffffffffffffffffffff1673ffffffffffffffffffffffffffffffffffffffff1681526020018873ffffffffffffffffffffffffffffffffffffffff1673ffffffffffffffffffffffffffffffffffffffff1681526020018781526020018673ffffffffffffffffffffffffffffffffffffffff1673ffffffffffffffffffffffffffffffffffffffff16815260200185815260200180602001806020018460ff1660ff168152602001838103835286818151815260200191508051906020019080838360005b838110156200067c5780820151818401526020810190506200065f565b50505050905090810190601f168015620006aa5780820380516001836020036101000a031916815260200191505b50838103825285818151815260200191508051906020019080838360005b83811015620006e5578082015181840152602081019050620006c8565b50505050905090810190601f168015620007135780820380516001836020036101000a031916815260200191505b509a5050505050505050505050604051809103906000f0801580156200073d573d6000803e3d6000fd5b50905060c0604051908101604052808881526020018660ff1681526020018781526020018273ffffffffffffffffffffffffffffffffffffffff1681526020018d73ffffffffffffffffffffffffffffffffffffffff1681526020018c73ffffffffffffffffffffffffffffffffffffffff1681525060036000820151816000019080519060200190620007d392919062001252565b5060208201518160010160006101000a81548160ff021916908360ff16021790555060408201518160020190805190602001906200081392919062001252565b5060608201518160030160006101000a81548173ffffffffffffffffffffffffffffffffffffffff021916908373ffffffffffffffffffffffffffffffffffffffff16021790555060808201518160040160006101000a81548173ffffffffffffffffffffffffffffffffffffffff021916908373ffffffffffffffffffffffffffffffffffffffff16021790555060a08201518160050160006101000a81548173ffffffffffffffffffffffffffffffffffffffff021916908373ffffffffffffffffffffffffffffffffffffffff1602179055509050506003600260006001548152602001908152602001600020600082018160000190805460018160011615610100020316600290046200092c929190620012d9565b506001820160009054906101000a900460ff168160010160006101000a81548160ff021916908360ff1602179055506002820181600201908054600181600116156101000203166002900462000984929190620012d9565b506003820160009054906101000a900473ffffffffffffffffffffffffffffffffffffffff168160030160006101000a81548173ffffffffffffffffffffffffffffffffffffffff021916908373ffffffffffffffffffffffffffffffffffffffff1602179055506004820160009054906101000a900473ffffffffffffffffffffffffffffffffffffffff168160040160006101000a81548173ffffffffffffffffffffffffffffffffffffffff021916908373ffffffffffffffffffffffffffffffffffffffff1602179055506005820160009054906101000a900473ffffffffffffffffffffffffffffffffffffffff168160050160006101000a81548173ffffffffffffffffffffffffffffffffffffffff021916908373ffffffffffffffffffffffffffffffffffffffff1602179055509050508073ffffffffffffffffffffffffffffffffffffffff1660405180807f7472616e736665724f776e657273686970286164647265737329000000000000815250601a01905060405180910390207c010000000000000000000000000000000000000000000000000000000090048d6040518263ffffffff167c0100000000000000000000000000000000000000000000000000000000028152600401808273ffffffffffffffffffffffffffffffffffffffff1673ffffffffffffffffffffffffffffffffffffffff1681526020019150506000604051808303816000875af192505050151562000bad57600080fd5b7f32c32e7b567b27004c3ae86a451f7e31beb26fe5818700e163277ec03d318069600154886040518083815260200180602001828103825283818151815260200191508051906020019080838360005b8381101562000c1a57808201518184015260208101905062000bfd565b50505050905090810190601f16801562000c485780820380516001836020036101000a031916815260200191505b50935050505060405180910390a1600180540160018190555060015493506003800160009054906101000a900473ffffffffffffffffffffffffffffffffffffffff16925086915050985098509895505050505050565b60008060009054906101000a900473ffffffffffffffffffffffffffffffffffffffff1673ffffffffffffffffffffffffffffffffffffffff163373ffffffffffffffffffffffffffffffffffffffff1614151562000cfd57600080fd5b600154905090565b6000809054906101000a900473ffffffffffffffffffffffffffffffffffffffff1673ffffffffffffffffffffffffffffffffffffffff163373ffffffffffffffffffffffffffffffffffffffff1614151562000d6157600080fd5b6000809054906101000a900473ffffffffffffffffffffffffffffffffffffffff1673ffffffffffffffffffffffffffffffffffffffff167ff8df31144d9c2f0f6b59d69b8b98abd5459d07f2742c4df920b25aae33c6482060405160405180910390a260008060006101000a81548173ffffffffffffffffffffffffffffffffffffffff021916908373ffffffffffffffffffffffffffffffffffffffff160217905550565b6000809054906101000a900473ffffffffffffffffffffffffffffffffffffffff1681565b6060806000806000806000809054906101000a900473ffffffffffffffffffffffffffffffffffffffff1673ffffffffffffffffffffffffffffffffffffffff163373ffffffffffffffffffffffffffffffffffffffff1614151562000e9257600080fd5b6002600088815260200190815260200160002060000160026000898152602001908152602001600020600201600260008a815260200190815260200160002060010160009054906101000a900460ff16600260008b815260200190815260200160002060030160009054906101000a900473ffffffffffffffffffffffffffffffffffffffff16600260008c815260200190815260200160002060040160009054906101000a900473ffffffffffffffffffffffffffffffffffffffff16600260008d815260200190815260200160002060050160009054906101000a900473ffffffffffffffffffffffffffffffffffffffff16858054600181600116156101000203166002900480601f016020809104026020016040519081016040528092919081815260200182805460018160011615610100020316600290048015620010205780601f1062000ff45761010080835404028352916020019162001020565b820191906000526020600020905b8154815290600101906020018083116200100257829003601f168201915b50505050509550848054600181600116156101000203166002900480601f016020809104026020016040519081016040528092919081815260200182805460018160011615610100020316600290048015620010c05780601f106200109457610100808354040283529160200191620010c0565b820191906000526020600020905b815481529060010190602001808311620010a257829003601f168201915b5050505050945095509550955095509550955091939550919395565b6000809054906101000a900473ffffffffffffffffffffffffffffffffffffffff1673ffffffffffffffffffffffffffffffffffffffff163373ffffffffffffffffffffffffffffffffffffffff161415156200113857600080fd5b620011438162001146565b50565b600073ffffffffffffffffffffffffffffffffffffffff168173ffffffffffffffffffffffffffffffffffffffff16141515156200118357600080fd5b8073ffffffffffffffffffffffffffffffffffffffff166000809054906101000a900473ffffffffffffffffffffffffffffffffffffffff1673ffffffffffffffffffffffffffffffffffffffff167f8be0079c531659141344cd1fd0a4f28419497f9722a3daafe3b4186f6b6457e060405160405180910390a3806000806101000a81548173ffffffffffffffffffffffffffffffffffffffff021916908373ffffffffffffffffffffffffffffffffffffffff16021790555050565b604051614266806200139083390190565b828054600181600116156101000203166002900490600052602060002090601f016020900481019282601f106200129557805160ff1916838001178555620012c6565b82800160010185558215620012c6579182015b82811115620012c5578251825591602001919060010190620012a8565b5b509050620012d5919062001367565b5090565b828054600181600116156101000203166002900490600052602060002090601f016020900481019282601f1062001314578054855562001354565b828001600101855582156200135457600052602060002091601f016020900482015b828111156200135357825482559160010191906001019062001336565b5b50905062001363919062001367565b5090565b6200138c91905b80821115620013885760008160009055506001016200136e565b5090565b905600608060405260006007553480156200001657600080fd5b506040516200426638038062004266833981018060405281019080805190602001909291908051906020019092919080519060200190929190805190602001909291908051906020019092919080518201929190602001805182019291906020018051906020019092919050505033600360006101000a81548173ffffffffffffffffffffffffffffffffffffffff021916908373ffffffffffffffffffffffffffffffffffffffff160217905550600073ffffffffffffffffffffffffffffffffffffffff168873ffffffffffffffffffffffffffffffffffffffff16141515156200010257600080fd5b600073ffffffffffffffffffffffffffffffffffffffff168773ffffffffffffffffffffffffffffffffffffffff16141515156200013f57600080fd5b600073ffffffffffffffffffffffffffffffffffffffff168573ffffffffffffffffffffffffffffffffffffffff16141515156200017c57600080fd5b600086101515156200018d57600080fd5b600084101515156200019e57600080fd5b60008160ff1610158015620001b7575060068160ff1611155b1515620001c357600080fd5b60008160ff161415620001de5760646001819055506200028c565b60018160ff161415620001fa576103e86001819055506200028b565b60028160ff16141562000216576127106001819055506200028a565b60038160ff1614156200023357620186a060018190555062000289565b60048160ff1614156200025057620f424060018190555062000288565b60058160ff1614156200026d576298968060018190555062000287565b60068160ff16141562000286576305f5e1006001819055505b5b5b5b5b5b5b856000808973ffffffffffffffffffffffffffffffffffffffff1673ffffffffffffffffffffffffffffffffffffffff16815260200190815260200160002081905550836000808773ffffffffffffffffffffffffffffffffffffffff1673ffffffffffffffffffffffffffffffffffffffff1681526020019081526020016000208190555062000339848701600154620003d66401000000000262001d37179091906401000000009004565b6000808a73ffffffffffffffffffffffffffffffffffffffff1673ffffffffffffffffffffffffffffffffffffffff16815260200190815260200160002081905550826004908051906020019062000393929190620003f0565b508160059080519060200190620003ac929190620003f0565b5080600660006101000a81548160ff021916908360ff16021790555050505050505050506200049f565b6000828211151515620003e557fe5b818303905092915050565b828054600181600116156101000203166002900490600052602060002090601f016020900481019282601f106200043357805160ff191683800117855562000464565b8280016001018555821562000464579182015b828111156200046357825182559160200191906001019062000446565b5b50905062000473919062000477565b5090565b6200049c91905b80821115620004985760008160009055506001016200047e565b5090565b90565b613db780620004af6000396000f3006080604052600436106200010f576000357c0100000000000000000000000000000000000000000000000000000000900463ffffffff16806306fdde031462000114578063095ea7b314620001aa5780631740ea5c146200021257806318160ddd14620002a65780631d65e77e14620002d457806323b872dd14620003c1578063313ce5671462000449578063425e7b8c146200047d5780636618846314620004ab57806370a082311462000513578063715018a6146200056d5780638da5cb5b146200058757806395d89b4114620005e1578063a9059cbb1462000677578063c17a340e14620006df578063d73dd623146200070d578063dd62ed3e1462000775578063f2fde38b14620007ef575b600080fd5b3480156200012157600080fd5b506200012c62000835565b6040518080602001828103825283818151815260200191508051906020019080838360005b838110156200016e57808201518184015260208101905062000151565b50505050905090810190601f1680156200019c5780820380516001836020036101000a031916815260200191505b509250505060405180910390f35b348015620001b757600080fd5b50620001f8600480360381019080803573ffffffffffffffffffffffffffffffffffffffff16906020019092919080359060200190929190505050620008d7565b604051808215151515815260200191505060405180910390f35b3480156200021f57600080fd5b5062000290600480360381019080803590602001908201803590602001908080601f01602080910402602001604051908101604052809392919081815260200183838082843782019150505050505091929192908035906020019092919080359060200190929190505050620009c9565b6040518082815260200191505060405180910390f35b348015620002b357600080fd5b50620002be62000e53565b6040518082815260200191505060405180910390f35b348015620002e157600080fd5b50620003026004803603810190808035906020019092919050505062000e5d565b60405180806020018581526020018481526020018373ffffffffffffffffffffffffffffffffffffffff1673ffffffffffffffffffffffffffffffffffffffff168152602001828103825286818151815260200191508051906020019080838360005b838110156200038257808201518184015260208101905062000365565b50505050905090810190601f168015620003b05780820380516001836020036101000a031916815260200191505b509550505050505060405180910390f35b348015620003ce57600080fd5b506200042f600480360381019080803573ffffffffffffffffffffffffffffffffffffffff169060200190929190803573ffffffffffffffffffffffffffffffffffffffff1690602001909291908035906020019092919050505062000f8e565b604051808215151515815260200191505060405180910390f35b3480156200045657600080fd5b506200046162001352565b604051808260ff1660ff16815260200191505060405180910390f35b3480156200048a57600080fd5b506200049562001365565b6040518082815260200191505060405180910390f35b348015620004b857600080fd5b50620004f9600480360381019080803573ffffffffffffffffffffffffffffffffffffffff169060200190929190803590602001909291905050506200136b565b604051808215151515815260200191505060405180910390f35b3480156200052057600080fd5b5062000557600480360381019080803573ffffffffffffffffffffffffffffffffffffffff16906020019092919050505062001601565b6040518082815260200191505060405180910390f35b3480156200057a57600080fd5b506200058562001649565b005b3480156200059457600080fd5b506200059f6200174f565b604051808273ffffffffffffffffffffffffffffffffffffffff1673ffffffffffffffffffffffffffffffffffffffff16815260200191505060405180910390f35b348015620005ee57600080fd5b50620005f962001775565b6040518080602001828103825283818151815260200191508051906020019080838360005b838110156200063b5780820151818401526020810190506200061e565b50505050905090810190601f168015620006695780820380516001836020036101000a031916815260200191505b509250505060405180910390f35b3480156200068457600080fd5b50620006c5600480360381019080803573ffffffffffffffffffffffffffffffffffffffff1690602001909291908035906020019092919050505062001817565b604051808215151515815260200191505060405180910390f35b348015620006ec57600080fd5b50620006f762001a3d565b6040518082815260200191505060405180910390f35b3480156200071a57600080fd5b506200075b600480360381019080803573ffffffffffffffffffffffffffffffffffffffff1690602001909291908035906020019092919050505062001a47565b604051808215151515815260200191505060405180910390f35b3480156200078257600080fd5b50620007d9600480360381019080803573ffffffffffffffffffffffffffffffffffffffff169060200190929190803573ffffffffffffffffffffffffffffffffffffffff16906020019092919050505062001c45565b6040518082815260200191505060405180910390f35b348015620007fc57600080fd5b5062000833600480360381019080803573ffffffffffffffffffffffffffffffffffffffff16906020019092919050505062001ccc565b005b60048054600181600116156101000203166002900480601f016020809104026020016040519081016040528092919081815260200182805460018160011615610100020316600290048015620008cf5780601f10620008a357610100808354040283529160200191620008cf565b820191906000526020600020905b815481529060010190602001808311620008b157829003601f168201915b505050505081565b600081600260003373ffffffffffffffffffffffffffffffffffffffff1673ffffffffffffffffffffffffffffffffffffffff16815260200190815260200160002060008573ffffffffffffffffffffffffffffffffffffffff1673ffffffffffffffffffffffffffffffffffffffff168152602001908152602001600020819055508273ffffffffffffffffffffffffffffffffffffffff163373ffffffffffffffffffffffffffffffffffffffff167f8c5be1e5ebec7d5bd14f71427d1e84f3dd0314c0f7b2291e5b200ac8c7c3b925846040518082815260200191505060405180910390a36001905092915050565b600080600360009054906101000a900473ffffffffffffffffffffffffffffffffffffffff1673ffffffffffffffffffffffffffffffffffffffff163373ffffffffffffffffffffffffffffffffffffffff1614151562000a2957600080fd5b8484843062000a3762001e6b565b80806020018581526020018481526020018373ffffffffffffffffffffffffffffffffffffffff1673ffffffffffffffffffffffffffffffffffffffff168152602001828103825286818151815260200191508051906020019080838360005b8381101562000ab457808201518184015260208101905062000a97565b50505050905090810190601f16801562000ae25780820380516001836020036101000a031916815260200191505b5095505050505050604051809103906000f08015801562000b07573d6000803e3d6000fd5b5090506080604051908101604052808681526020018581526020018481526020018273ffffffffffffffffffffffffffffffffffffffff168152506009600082015181600001908051906020019062000b6292919062001e7c565b50602082015181600101556040820151816002015560608201518160030160006101000a81548173ffffffffffffffffffffffffffffffffffffffff021916908373ffffffffffffffffffffffffffffffffffffffff16021790555090505060096008600060075481526020019081526020016000206000820181600001908054600181600116156101000203166002900462000c0192919062001f03565b5060018201548160010155600282015481600201556003820160009054906101000a900473ffffffffffffffffffffffffffffffffffffffff168160030160006101000a81548173ffffffffffffffffffffffffffffffffffffffff021916908373ffffffffffffffffffffffffffffffffffffffff1602179055509050506001600754016007819055508073ffffffffffffffffffffffffffffffffffffffff1660405180807f7472616e736665724f776e657273686970286164647265737329000000000000815250601a01905060405180910390207c01000000000000000000000000000000000000000000000000000000009004600360009054906101000a900473ffffffffffffffffffffffffffffffffffffffff166040518263ffffffff167c0100000000000000000000000000000000000000000000000000000000028152600401808273ffffffffffffffffffffffffffffffffffffffff1673ffffffffffffffffffffffffffffffffffffffff1681526020019150506000604051808303816000875af192505050151562000d9e57600080fd5b82840160026000600360009054906101000a900473ffffffffffffffffffffffffffffffffffffffff1673ffffffffffffffffffffffffffffffffffffffff1673ffffffffffffffffffffffffffffffffffffffff16815260200190815260200160002060008373ffffffffffffffffffffffffffffffffffffffff1673ffffffffffffffffffffffffffffffffffffffff168152602001908152602001600020819055506001600754039150509392505050565b6000600154905090565b6060600080600060086000868152602001908152602001600020600001600860008781526020019081526020016000206001015460086000888152602001908152602001600020600201546008600089815260200190815260200160002060030160009054906101000a900473ffffffffffffffffffffffffffffffffffffffff16838054600181600116156101000203166002900480601f01602080910402602001604051908101604052809291908181526020018280546001816001161561010002031660029004801562000f785780601f1062000f4c5761010080835404028352916020019162000f78565b820191906000526020600020905b81548152906001019060200180831162000f5a57829003601f168201915b5050505050935093509350935093509193509193565b60008060008573ffffffffffffffffffffffffffffffffffffffff1673ffffffffffffffffffffffffffffffffffffffff16815260200190815260200160002054821115151562000fde57600080fd5b600260008573ffffffffffffffffffffffffffffffffffffffff1673ffffffffffffffffffffffffffffffffffffffff16815260200190815260200160002060003373ffffffffffffffffffffffffffffffffffffffff1673ffffffffffffffffffffffffffffffffffffffff1681526020019081526020016000205482111515156200106a57600080fd5b600073ffffffffffffffffffffffffffffffffffffffff168373ffffffffffffffffffffffffffffffffffffffff1614151515620010a757600080fd5b620010fa826000808773ffffffffffffffffffffffffffffffffffffffff1673ffffffffffffffffffffffffffffffffffffffff1681526020019081526020016000205462001d3790919063ffffffff16565b6000808673ffffffffffffffffffffffffffffffffffffffff1673ffffffffffffffffffffffffffffffffffffffff168152602001908152602001600020819055506200118f826000808673ffffffffffffffffffffffffffffffffffffffff1673ffffffffffffffffffffffffffffffffffffffff1681526020019081526020016000205462001d5190919063ffffffff16565b6000808573ffffffffffffffffffffffffffffffffffffffff1673ffffffffffffffffffffffffffffffffffffffff168152602001908152602001600020819055506200126282600260008773ffffffffffffffffffffffffffffffffffffffff1673ffffffffffffffffffffffffffffffffffffffff16815260200190815260200160002060003373ffffffffffffffffffffffffffffffffffffffff1673ffffffffffffffffffffffffffffffffffffffff1681526020019081526020016000205462001d3790919063ffffffff16565b600260008673ffffffffffffffffffffffffffffffffffffffff1673ffffffffffffffffffffffffffffffffffffffff16815260200190815260200160002060003373ffffffffffffffffffffffffffffffffffffffff1673ffffffffffffffffffffffffffffffffffffffff168152602001908152602001600020819055508273ffffffffffffffffffffffffffffffffffffffff168473ffffffffffffffffffffffffffffffffffffffff167fddf252ad1be2c89b69c2b068fc378daa952ba7f163c4a11628f55a4df523b3ef846040518082815260200191505060405180910390a3600190509392505050565b600660009054906101000a900460ff1681565b60075481565b600080600260003373ffffffffffffffffffffffffffffffffffffffff1673ffffffffffffffffffffffffffffffffffffffff16815260200190815260200160002060008573ffffffffffffffffffffffffffffffffffffffff1673ffffffffffffffffffffffffffffffffffffffff16815260200190815260200160002054905080831015156200147f576000600260003373ffffffffffffffffffffffffffffffffffffffff1673ffffffffffffffffffffffffffffffffffffffff16815260200190815260200160002060008673ffffffffffffffffffffffffffffffffffffffff1673ffffffffffffffffffffffffffffffffffffffff1681526020019081526020016000208190555062001515565b62001494838262001d3790919063ffffffff16565b600260003373ffffffffffffffffffffffffffffffffffffffff1673ffffffffffffffffffffffffffffffffffffffff16815260200190815260200160002060008673ffffffffffffffffffffffffffffffffffffffff1673ffffffffffffffffffffffffffffffffffffffff168152602001908152602001600020819055505b8373ffffffffffffffffffffffffffffffffffffffff163373ffffffffffffffffffffffffffffffffffffffff167f8c5be1e5ebec7d5bd14f71427d1e84f3dd0314c0f7b2291e5b200ac8c7c3b925600260003373ffffffffffffffffffffffffffffffffffffffff1673ffffffffffffffffffffffffffffffffffffffff16815260200190815260200160002060008873ffffffffffffffffffffffffffffffffffffffff1673ffffffffffffffffffffffffffffffffffffffff168152602001908152602001600020546040518082815260200191505060405180910390a3600191505092915050565b60008060008373ffffffffffffffffffffffffffffffffffffffff1673ffffffffffffffffffffffffffffffffffffffff168152602001908152602001600020549050919050565b600360009054906101000a900473ffffffffffffffffffffffffffffffffffffffff1673ffffffffffffffffffffffffffffffffffffffff163373ffffffffffffffffffffffffffffffffffffffff16141515620016a657600080fd5b600360009054906101000a900473ffffffffffffffffffffffffffffffffffffffff1673ffffffffffffffffffffffffffffffffffffffff167ff8df31144d9c2f0f6b59d69b8b98abd5459d07f2742c4df920b25aae33c6482060405160405180910390a26000600360006101000a81548173ffffffffffffffffffffffffffffffffffffffff021916908373ffffffffffffffffffffffffffffffffffffffff160217905550565b600360009054906101000a900473ffffffffffffffffffffffffffffffffffffffff1681565b60058054600181600116156101000203166002900480601f0160208091040260200160405190810160405280929190818152602001828054600181600116156101000203166002900480156200180f5780601f10620017e3576101008083540402835291602001916200180f565b820191906000526020600020905b815481529060010190602001808311620017f157829003601f168201915b505050505081565b60008060003373ffffffffffffffffffffffffffffffffffffffff1673ffffffffffffffffffffffffffffffffffffffff1681526020019081526020016000205482111515156200186757600080fd5b600073ffffffffffffffffffffffffffffffffffffffff168373ffffffffffffffffffffffffffffffffffffffff1614151515620018a457600080fd5b620018f7826000803373ffffffffffffffffffffffffffffffffffffffff1673ffffffffffffffffffffffffffffffffffffffff1681526020019081526020016000205462001d3790919063ffffffff16565b6000803373ffffffffffffffffffffffffffffffffffffffff1673ffffffffffffffffffffffffffffffffffffffff168152602001908152602001600020819055506200198c826000808673ffffffffffffffffffffffffffffffffffffffff1673ffffffffffffffffffffffffffffffffffffffff1681526020019081526020016000205462001d5190919063ffffffff16565b6000808573ffffffffffffffffffffffffffffffffffffffff1673ffffffffffffffffffffffffffffffffffffffff168152602001908152602001600020819055508273ffffffffffffffffffffffffffffffffffffffff163373ffffffffffffffffffffffffffffffffffffffff167fddf252ad1be2c89b69c2b068fc378daa952ba7f163c4a11628f55a4df523b3ef846040518082815260200191505060405180910390a36001905092915050565b6000600754905090565b600062001ada82600260003373ffffffffffffffffffffffffffffffffffffffff1673ffffffffffffffffffffffffffffffffffffffff16815260200190815260200160002060008673ffffffffffffffffffffffffffffffffffffffff1673ffffffffffffffffffffffffffffffffffffffff1681526020019081526020016000205462001d5190919063ffffffff16565b600260003373ffffffffffffffffffffffffffffffffffffffff1673ffffffffffffffffffffffffffffffffffffffff16815260200190815260200160002060008573ffffffffffffffffffffffffffffffffffffffff1673ffffffffffffffffffffffffffffffffffffffff168152602001908152602001600020819055508273ffffffffffffffffffffffffffffffffffffffff163373ffffffffffffffffffffffffffffffffffffffff167f8c5be1e5ebec7d5bd14f71427d1e84f3dd0314c0f7b2291e5b200ac8c7c3b925600260003373ffffffffffffffffffffffffffffffffffffffff1673ffffffffffffffffffffffffffffffffffffffff16815260200190815260200160002060008773ffffffffffffffffffffffffffffffffffffffff1673ffffffffffffffffffffffffffffffffffffffff168152602001908152602001600020546040518082815260200191505060405180910390a36001905092915050565b6000600260008473ffffffffffffffffffffffffffffffffffffffff1673ffffffffffffffffffffffffffffffffffffffff16815260200190815260200160002060008373ffffffffffffffffffffffffffffffffffffffff1673ffffffffffffffffffffffffffffffffffffffff16815260200190815260200160002054905092915050565b600360009054906101000a900473ffffffffffffffffffffffffffffffffffffffff1673ffffffffffffffffffffffffffffffffffffffff163373ffffffffffffffffffffffffffffffffffffffff1614151562001d2957600080fd5b62001d348162001d6e565b50565b600082821115151562001d4657fe5b818303905092915050565b6000818301905082811015151562001d6557fe5b80905092915050565b600073ffffffffffffffffffffffffffffffffffffffff168173ffffffffffffffffffffffffffffffffffffffff161415151562001dab57600080fd5b8073ffffffffffffffffffffffffffffffffffffffff16600360009054906101000a900473ffffffffffffffffffffffffffffffffffffffff1673ffffffffffffffffffffffffffffffffffffffff167f8be0079c531659141344cd1fd0a4f28419497f9722a3daafe3b4186f6b6457e060405160405180910390a380600360006101000a81548173ffffffffffffffffffffffffffffffffffffffff021916908373ffffffffffffffffffffffffffffffffffffffff16021790555050565b604051611dd28062001fba83390190565b828054600181600116156101000203166002900490600052602060002090601f016020900481019282601f1062001ebf57805160ff191683800117855562001ef0565b8280016001018555821562001ef0579182015b8281111562001eef57825182559160200191906001019062001ed2565b5b50905062001eff919062001f91565b5090565b828054600181600116156101000203166002900490600052602060002090601f016020900481019282601f1062001f3e578054855562001f7e565b8280016001018555821562001f7e57600052602060002091601f016020900482015b8281111562001f7d57825482559160010191906001019062001f60565b5b50905062001f8d919062001f91565b5090565b62001fb691905b8082111562001fb257600081600090555060010162001f98565b5090565b90560060806040526000600560006101000a81548160ff0219169083151502179055506000600560016101000a81548160ff0219169083151502179055506000600760006101000a81548160ff0219169083151502179055506000600760016101000a81548160ff021916908315150217905550600060085560006009553480156200008757600080fd5b5060405162001dd238038062001dd283398101806040528101908080518201929190602001805190602001909291908051906020019092919080519060200190929190505050336000806101000a81548173ffffffffffffffffffffffffffffffffffffffff021916908373ffffffffffffffffffffffffffffffffffffffff160217905550600073ffffffffffffffffffffffffffffffffffffffff168173ffffffffffffffffffffffffffffffffffffffff16141515156200014a57600080fd5b600083101515156200015b57600080fd5b600082101515156200016c57600080fd5b600084511115156200017d57600080fd5b836001908051906020019062000195929190620001ef565b50826004819055508160068190555080600260006101000a81548173ffffffffffffffffffffffffffffffffffffffff021916908373ffffffffffffffffffffffffffffffffffffffff160217905550505050506200029e565b828054600181600116156101000203166002900490600052602060002090601f016020900481019282601f106200023257805160ff191683800117855562000263565b8280016001018555821562000263579182015b828111156200026257825182559160200191906001019062000245565b5b50905062000272919062000276565b5090565b6200029b91905b80821115620002975760008160009055506001016200027d565b5090565b90565b611b2480620002ae6000396000f30060806040526004361061015f576000357c0100000000000000000000000000000000000000000000000000000000900463ffffffff1680632124e4cc1461016457806333460e7f146102115780633804f0c0146102855780633a77c91a146102b05780633a8bae84146103195780633cf96af11461033057806347992797146103875780634a990c8b146103fb578063537dbb451461042a5780635a319a3a1461049357806361513264146104fc578063688e04331461056f578063715018a61461059e57806372e0576a146105b557806379bd45111461060c578063856ff264146106755780638b65e252146106a45780638da5cb5b146106bb5780638fc3ceb414610712578063a66ba55114610741578063b74c379b14610784578063c0bcec46146107c7578063cde5b4e1146107f2578063d1a1542c14610849578063d546c33d14610874578063f2fde38b146108dd578063f7222aad14610920575b600080fd5b34801561017057600080fd5b5061018f600480360381019080803590602001909291905050506109b0565b6040518080602001838152602001828103825284818151815260200191508051906020019080838360005b838110156101d55780820151818401526020810190506101ba565b50505050905090810190601f1680156102025780820380516001836020036101000a031916815260200191505b50935050505060405180910390f35b34801561021d57600080fd5b50610226610a6c565b604051808573ffffffffffffffffffffffffffffffffffffffff1673ffffffffffffffffffffffffffffffffffffffff168152602001848152602001831515151581526020018215151515815260200194505050505060405180910390f35b34801561029157600080fd5b5061029a610ac6565b6040518082815260200191505060405180910390f35b3480156102bc57600080fd5b50610317600480360381019080803590602001908201803590602001908080601f0160208091040260200160405190810160405280939291908181526020018383808284378201915050505050509192919290505050610acc565b005b34801561032557600080fd5b5061032e610d12565b005b34801561033c57600080fd5b50610345610eb5565b604051808273ffffffffffffffffffffffffffffffffffffffff1673ffffffffffffffffffffffffffffffffffffffff16815260200191505060405180910390f35b34801561039357600080fd5b5061039c610edb565b604051808573ffffffffffffffffffffffffffffffffffffffff1673ffffffffffffffffffffffffffffffffffffffff168152602001848152602001831515151581526020018215151515815260200194505050505060405180910390f35b34801561040757600080fd5b50610410610f35565b604051808215151515815260200191505060405180910390f35b34801561043657600080fd5b50610491600480360381019080803590602001908201803590602001908080601f0160208091040260200160405190810160405280939291908181526020018383808284378201915050505050509192919290505050610f48565b005b34801561049f57600080fd5b506104fa600480360381019080803590602001908201803590602001908080601f0160208091040260200160405190810160405280939291908181526020018383808284378201915050505050509192919290505050610fdd565b005b34801561050857600080fd5b5061056d600480360381019080803590602001908201803590602001908080601f016020809104026020016040519081016040528093929190818152602001838380828437820191505050505050919291929080359060200190929190505050611093565b005b34801561057b57600080fd5b50610584611130565b604051808215151515815260200191505060405180910390f35b3480156105aa57600080fd5b506105b3611143565b005b3480156105c157600080fd5b506105ca611245565b604051808273ffffffffffffffffffffffffffffffffffffffff1673ffffffffffffffffffffffffffffffffffffffff16815260200191505060405180910390f35b34801561061857600080fd5b50610673600480360381019080803590602001908201803590602001908080601f016020809104026020016040519081016040528093929190818152602001838380828437820191505050505050919291929050505061126b565b005b34801561068157600080fd5b5061068a611321565b604051808215151515815260200191505060405180910390f35b3480156106b057600080fd5b506106b9611334565b005b3480156106c757600080fd5b506106d06114d4565b604051808273ffffffffffffffffffffffffffffffffffffffff1673ffffffffffffffffffffffffffffffffffffffff16815260200191505060405180910390f35b34801561071e57600080fd5b506107276114f9565b604051808215151515815260200191505060405180910390f35b34801561074d57600080fd5b50610782600480360381019080803573ffffffffffffffffffffffffffffffffffffffff16906020019092919050505061150c565b005b34801561079057600080fd5b506107c5600480360381019080803573ffffffffffffffffffffffffffffffffffffffff169060200190929190505050611609565b005b3480156107d357600080fd5b506107dc611706565b6040518082815260200191505060405180910390f35b3480156107fe57600080fd5b5061080761170c565b604051808273ffffffffffffffffffffffffffffffffffffffff1673ffffffffffffffffffffffffffffffffffffffff16815260200191505060405180910390f35b34801561085557600080fd5b5061085e611732565b6040518082815260200191505060405180910390f35b34801561088057600080fd5b506108db600480360381019080803590602001908201803590602001908080601f0160208091040260200160405190810160405280939291908181526020018383808284378201915050505050509192919290505050611738565b005b3480156108e957600080fd5b5061091e600480360381019080803573ffffffffffffffffffffffffffffffffffffffff1690602001909291905050506117cd565b005b34801561092c57600080fd5b50610935611834565b6040518080602001828103825283818151815260200191508051906020019080838360005b8381101561097557808201518184015260208101905061095a565b50505050905090810190601f1680156109a25780820380516001836020036101000a031916815260200191505b509250505060405180910390f35b600a602052806000526040600020600091509050806000018054600181600116156101000203166002900480601f016020809104026020016040519081016040528092919081815260200182805460018160011615610100020316600290048015610a5c5780601f10610a3157610100808354040283529160200191610a5c565b820191906000526020600020905b815481529060010190602001808311610a3f57829003601f168201915b5050505050908060010154905082565b600080600080600360009054906101000a900473ffffffffffffffffffffffffffffffffffffffff1693506004549250600560009054906101000a900460ff169150600560019054906101000a900460ff16905090919293565b60045481565b600360009054906101000a900473ffffffffffffffffffffffffffffffffffffffff1673ffffffffffffffffffffffffffffffffffffffff163373ffffffffffffffffffffffffffffffffffffffff161480610b755750600560029054906101000a900473ffffffffffffffffffffffffffffffffffffffff1673ffffffffffffffffffffffffffffffffffffffff163373ffffffffffffffffffffffffffffffffffffffff16145b80610bcc57506000809054906101000a900473ffffffffffffffffffffffffffffffffffffffff1673ffffffffffffffffffffffffffffffffffffffff163373ffffffffffffffffffffffffffffffffffffffff16145b1515610bd757600080fd5b6000809054906101000a900473ffffffffffffffffffffffffffffffffffffffff1673ffffffffffffffffffffffffffffffffffffffff163373ffffffffffffffffffffffffffffffffffffffff161415610c355760016008819055505b600360009054906101000a900473ffffffffffffffffffffffffffffffffffffffff1673ffffffffffffffffffffffffffffffffffffffff163373ffffffffffffffffffffffffffffffffffffffff161415610c945760026008819055505b600560029054906101000a900473ffffffffffffffffffffffffffffffffffffffff1673ffffffffffffffffffffffffffffffffffffffff163373ffffffffffffffffffffffffffffffffffffffff161415610cf35760036008819055505b60008151111515610d0357600080fd5b610d0f81600854611093565b50565b6000809054906101000a900473ffffffffffffffffffffffffffffffffffffffff1673ffffffffffffffffffffffffffffffffffffffff163373ffffffffffffffffffffffffffffffffffffffff16141515610d6d57600080fd5b6001600760006101000a81548160ff02191690831515021790551515610d9257600080fd5b60001515600760019054906101000a900460ff161515141515610db457600080fd5b6001600760016101000a81548160ff0219169083151502179055507f2e8f320f26e1408a887da348ca3e09c9a8b4ac4fdf759aaa8fc94bef12bb59296000809054906101000a900473ffffffffffffffffffffffffffffffffffffffff16600560029054906101000a900473ffffffffffffffffffffffffffffffffffffffff16600654604051808473ffffffffffffffffffffffffffffffffffffffff1673ffffffffffffffffffffffffffffffffffffffff1681526020018373ffffffffffffffffffffffffffffffffffffffff1673ffffffffffffffffffffffffffffffffffffffff168152602001828152602001935050505060405180910390a1565b600260009054906101000a900473ffffffffffffffffffffffffffffffffffffffff1681565b600080600080600560029054906101000a900473ffffffffffffffffffffffffffffffffffffffff1693506006549250600760009054906101000a900460ff169150600760019054906101000a900460ff16905090919293565b600560009054906101000a900460ff1681565b600560029054906101000a900473ffffffffffffffffffffffffffffffffffffffff1673ffffffffffffffffffffffffffffffffffffffff163373ffffffffffffffffffffffffffffffffffffffff16141515610fa457600080fd5b60008151111515610fb457600080fd5b6001600760006101000a81548160ff021916908315150217905550610fda816003611093565b50565b6000809054906101000a900473ffffffffffffffffffffffffffffffffffffffff1673ffffffffffffffffffffffffffffffffffffffff163373ffffffffffffffffffffffffffffffffffffffff1614151561103857600080fd5b60011515600760009054906101000a900460ff16151514151561105a57600080fd5b6000815111151561106a57600080fd5b6000600760006101000a81548160ff021916908315150217905550611090816001611093565b50565b604080519081016040528083815260200182815250600b60008201518160000190805190602001906110c69291906119cc565b5060208201518160010155905050600b600a6000600954815260200190815260200160002060008201816000019080546001816001161561010002031660029004611112929190611a4c565b50600182015481600101559050506001600954016009819055505050565b600560019054906101000a900460ff1681565b6000809054906101000a900473ffffffffffffffffffffffffffffffffffffffff1673ffffffffffffffffffffffffffffffffffffffff163373ffffffffffffffffffffffffffffffffffffffff1614151561119e57600080fd5b6000809054906101000a900473ffffffffffffffffffffffffffffffffffffffff1673ffffffffffffffffffffffffffffffffffffffff167ff8df31144d9c2f0f6b59d69b8b98abd5459d07f2742c4df920b25aae33c6482060405160405180910390a260008060006101000a81548173ffffffffffffffffffffffffffffffffffffffff021916908373ffffffffffffffffffffffffffffffffffffffff160217905550565b600560029054906101000a900473ffffffffffffffffffffffffffffffffffffffff1681565b6000809054906101000a900473ffffffffffffffffffffffffffffffffffffffff1673ffffffffffffffffffffffffffffffffffffffff163373ffffffffffffffffffffffffffffffffffffffff161415156112c657600080fd5b60011515600560009054906101000a900460ff1615151415156112e857600080fd5b600081511115156112f857600080fd5b6000600560006101000a81548160ff02191690831515021790555061131e816001611093565b50565b600760019054906101000a900460ff1681565b6000809054906101000a900473ffffffffffffffffffffffffffffffffffffffff1673ffffffffffffffffffffffffffffffffffffffff163373ffffffffffffffffffffffffffffffffffffffff1614151561138f57600080fd5b60011515600560009054906101000a900460ff1615151415156113b157600080fd5b60001515600560019054906101000a900460ff1615151415156113d357600080fd5b6001600560016101000a81548160ff0219169083151502179055507f2e705641ef3838701162829c9931a82fbb60ea6b84992d297d1654cc31ce0d8b6000809054906101000a900473ffffffffffffffffffffffffffffffffffffffff16600360009054906101000a900473ffffffffffffffffffffffffffffffffffffffff16600454604051808473ffffffffffffffffffffffffffffffffffffffff1673ffffffffffffffffffffffffffffffffffffffff1681526020018373ffffffffffffffffffffffffffffffffffffffff1673ffffffffffffffffffffffffffffffffffffffff168152602001828152602001935050505060405180910390a1565b6000809054906101000a900473ffffffffffffffffffffffffffffffffffffffff1681565b600760009054906101000a900460ff1681565b6000809054906101000a900473ffffffffffffffffffffffffffffffffffffffff1673ffffffffffffffffffffffffffffffffffffffff163373ffffffffffffffffffffffffffffffffffffffff1614151561156757600080fd5b600073ffffffffffffffffffffffffffffffffffffffff168173ffffffffffffffffffffffffffffffffffffffff16141515156115a357600080fd5b60001515600760019054906101000a900460ff1615151415156115c557600080fd5b80600560026101000a81548173ffffffffffffffffffffffffffffffffffffffff021916908373ffffffffffffffffffffffffffffffffffffffff16021790555050565b6000809054906101000a900473ffffffffffffffffffffffffffffffffffffffff1673ffffffffffffffffffffffffffffffffffffffff163373ffffffffffffffffffffffffffffffffffffffff1614151561166457600080fd5b600073ffffffffffffffffffffffffffffffffffffffff168173ffffffffffffffffffffffffffffffffffffffff16141515156116a057600080fd5b60001515600560019054906101000a900460ff1615151415156116c257600080fd5b80600360006101000a81548173ffffffffffffffffffffffffffffffffffffffff021916908373ffffffffffffffffffffffffffffffffffffffff16021790555050565b60065481565b600360009054906101000a900473ffffffffffffffffffffffffffffffffffffffff1681565b60095481565b600360009054906101000a900473ffffffffffffffffffffffffffffffffffffffff1673ffffffffffffffffffffffffffffffffffffffff163373ffffffffffffffffffffffffffffffffffffffff1614151561179457600080fd5b600081511115156117a457600080fd5b6001600560006101000a81548160ff0219169083151502179055506117ca816002611093565b50565b6000809054906101000a900473ffffffffffffffffffffffffffffffffffffffff1673ffffffffffffffffffffffffffffffffffffffff163373ffffffffffffffffffffffffffffffffffffffff1614151561182857600080fd5b611831816118d2565b50565b60018054600181600116156101000203166002900480601f0160208091040260200160405190810160405280929190818152602001828054600181600116156101000203166002900480156118ca5780601f1061189f576101008083540402835291602001916118ca565b820191906000526020600020905b8154815290600101906020018083116118ad57829003601f168201915b505050505081565b600073ffffffffffffffffffffffffffffffffffffffff168173ffffffffffffffffffffffffffffffffffffffff161415151561190e57600080fd5b8073ffffffffffffffffffffffffffffffffffffffff166000809054906101000a900473ffffffffffffffffffffffffffffffffffffffff1673ffffffffffffffffffffffffffffffffffffffff167f8be0079c531659141344cd1fd0a4f28419497f9722a3daafe3b4186f6b6457e060405160405180910390a3806000806101000a81548173ffffffffffffffffffffffffffffffffffffffff021916908373ffffffffffffffffffffffffffffffffffffffff16021790555050565b828054600181600116156101000203166002900490600052602060002090601f016020900481019282601f10611a0d57805160ff1916838001178555611a3b565b82800160010185558215611a3b579182015b82811115611a3a578251825591602001919060010190611a1f565b5b509050611a489190611ad3565b5090565b828054600181600116156101000203166002900490600052602060002090601f016020900481019282601f10611a855780548555611ac2565b82800160010185558215611ac257600052602060002091601f016020900482015b82811115611ac1578254825591600101919060010190611aa6565b5b509050611acf9190611ad3565b5090565b611af591905b80821115611af1576000816000905550600101611ad9565b5090565b905600a165627a7a72305820724611c83d35a588cb4f5423ad7e6e7599b04f630982cd7156e617f7f506dd170029a165627a7a723058207126608353e04f33d6baaef95f8751753aa06b1fef12b57316454cc0b2dd405e0029a165627a7a72305820394b5b4fef9de16358355b4706ffb7518effec9c724158c3346f11e956c6c7620029",
  "source": "pragma solidity ^0.4.24;\r\n\r\nimport './contracts/ownership/Ownable.sol';\r\nimport './ProjectEquity.sol';\r\nimport './Migrations.sol';\r\n\r\ncontract Incubator is Ownable {\r\n\t\r\n\t//-----------------------------------------------------------------------------------------------------\r\n\t// Incubator projects collection, Project structure and number of projects in this incubator. \r\n\t// numberOfProjectsInThisIncubator contains number of projects in this incubator and this is 0 based\r\n\t// which means if value is 1 then first project contract is at 0 index in the mapping \r\n\t//-----------------------------------------------------------------------------------------------------\r\n\tuint private numberOfProjectsInThisIncubator = 0;   \r\n\tstruct projectsStruct {             \t\t\t\t\r\n\t\tstring name;\r\n\t\tuint8 decimals;\r\n\t\tstring symbol;\r\n\t\taddress projectContractAddress;\r\n\t\taddress projectOwner;\r\n\t\taddress projectIncubatorOwner;\r\n\t}\r\n\tmapping (uint => projectsStruct) private incubatorProjects; \r\n\r\n\t\r\n\t\r\n\t\r\n\t//-----------------------------------------------------------------------------------------------------\r\n\t// Events in this contract \r\n\t//-----------------------------------------------------------------------------------------------------\r\n\tevent ProjectCreatedEvent(uint ProjectID, string projectName );\r\n\t\r\n\t\r\n\t\r\n\t\r\n\t//-------------------------------------------------\r\n\t// Contract Constructor       \r\n\t//-------------------------------------------------\r\n\tconstructor() public \r\n    {\r\n\t\t\r\n\t}\r\n\t\r\n\r\n\t\r\n\tfunction getProjectCount() onlyOwner public view returns (uint) {\r\n\t\treturn numberOfProjectsInThisIncubator;\r\n\t}\r\n\t\r\n\t\r\n\tfunction getProject(uint id) onlyOwner public view \r\n\treturns ( \tstring name,\r\n\t\t\t\tstring symbol,\r\n\t\t\t\tuint8 decimals,\r\n\t\t\t\taddress projectContractAddress,\r\n\t\t\t\taddress projectOwner,\r\n\t\t\t\taddress projectIncubatorOwner ) \r\n\t{\r\n\t\r\n\t\treturn (  \r\n\t\t\t\tincubatorProjects[id].name,\r\n\t\t\t\tincubatorProjects[id].symbol,\r\n\t\t\t\tincubatorProjects[id].decimals,\r\n\t\t\t\tincubatorProjects[id].projectContractAddress,\r\n\t\t\t\tincubatorProjects[id].projectOwner,\r\n\t\t\t\tincubatorProjects[id].projectIncubatorOwner\t\t\r\n\t\t);\r\n\t}\r\n\t\r\n\t\r\n\t\r\n\t//-----------------------------------------------------------------------------------------\r\n\t// Add new project.   This interface will create a new project within this incubator\r\n\t//-----------------------------------------------------------------------------------------\r\n\tprojectsStruct newProject;\r\n\tfunction addNewProject(\r\n\t\t\t\t\taddress _projectOwner,\r\n\t\t\t\t\taddress _incubatorOwnerAddress,\r\n\t\t\t\t\tuint _incubatorOwnerPercentageInProject, \r\n\t\t\t\t\taddress _ventureFusionOwnerAddress, \r\n\t\t\t\t\tuint _ventureFusionPercentageInProject, \r\n\t\t\t\t    string _name,\r\n\t\t\t\t    string _symbol,\t\t\t\t\t\r\n\t\t\t\t\tuint8 _decimals\r\n\t\t\t\t) public onlyOwner \t\t\r\n\t\treturns ( uint newProjectID, \r\n\t\t\t\t  address projectAddress, \r\n\t\t\t\t  string projectName\r\n\t\t\t\t)\r\n\t{\r\n\r\n\t\t//Create new project contract\r\n\t\taddress newProjectContract = new ProjectEquity(_projectOwner, _incubatorOwnerAddress, _incubatorOwnerPercentageInProject, _ventureFusionOwnerAddress, _ventureFusionPercentageInProject, _name, _symbol, _decimals);\r\n\r\n\t\t//Create project structure object and add it to projects collection\r\n\t\tnewProject = projectsStruct(_name, _decimals, _symbol, newProjectContract, _projectOwner, _incubatorOwnerAddress);\r\n\t\tincubatorProjects[numberOfProjectsInThisIncubator] = newProject;\r\n\t\t\r\n\t\t//Transfer ownership to project owner\r\n\t\trequire(newProjectContract.call(bytes4(keccak256(\"transferOwnership(address)\")),_projectOwner));\r\n\t\t\r\n\t\t//Emit event that project has been created \r\n\t\temit ProjectCreatedEvent(numberOfProjectsInThisIncubator, _name);\r\n\t\t\r\n\t\t//Increment counter for next new project\r\n\t\tnumberOfProjectsInThisIncubator = numberOfProjectsInThisIncubator + 1;\r\n\t\t\r\n\t\t//Set return values of this function \r\n\t\tnewProjectID = numberOfProjectsInThisIncubator;\r\n\t\tprojectAddress = newProject.projectContractAddress;\r\n\t\tprojectName = _name;\r\n\t\t\r\n\t}\r\n\r\n\r\n\r\n}\r\n\r\n",
  "sourcePath": "F:\\Projects\\work\\VF\\blockchain\\contracts\\Incubator.sol",
  "compiler": {
    "name": "solc",
    "version": "0.4.24+commit.e67f0147.Emscripten.clang"
  },
  "schemaVersion": "2.0.1",
  "updatedAt": "2018-10-21T19:19:19.836Z"
}