{
  "contractName": "ProjectTask",
  "abi": [
    {
      "constant": true,
      "inputs": [
        {
          "name": "",
          "type": "uint256"
        }
      ],
      "name": "taskNotes",
      "outputs": [
        {
          "name": "notes",
          "type": "string"
        },
        {
          "name": "sendBy",
          "type": "uint256"
        }
      ],
      "payable": false,
      "stateMutability": "view",
      "type": "function"
    },
    {
      "constant": true,
      "inputs": [],
      "name": "contributorProjectShares",
      "outputs": [
        {
          "name": "",
          "type": "uint256"
        }
      ],
      "payable": false,
      "stateMutability": "view",
      "type": "function"
    },
    {
      "constant": true,
      "inputs": [],
      "name": "projectAddress",
      "outputs": [
        {
          "name": "",
          "type": "address"
        }
      ],
      "payable": false,
      "stateMutability": "view",
      "type": "function"
    },
    {
      "constant": true,
      "inputs": [],
      "name": "isContributorSolutionSubmitted",
      "outputs": [
        {
          "name": "",
          "type": "bool"
        }
      ],
      "payable": false,
      "stateMutability": "view",
      "type": "function"
    },
    {
      "constant": true,
      "inputs": [],
      "name": "isContributorSolutionAcceptedAndSharesTransferred",
      "outputs": [
        {
          "name": "",
          "type": "bool"
        }
      ],
      "payable": false,
      "stateMutability": "view",
      "type": "function"
    },
    {
      "constant": false,
      "inputs": [],
      "name": "renounceOwnership",
      "outputs": [],
      "payable": false,
      "stateMutability": "nonpayable",
      "type": "function"
    },
    {
      "constant": true,
      "inputs": [],
      "name": "evaluatorAddress",
      "outputs": [
        {
          "name": "",
          "type": "address"
        }
      ],
      "payable": false,
      "stateMutability": "view",
      "type": "function"
    },
    {
      "constant": true,
      "inputs": [],
      "name": "isEvaluatorSolutionAcceptedAndSharesTransferred",
      "outputs": [
        {
          "name": "",
          "type": "bool"
        }
      ],
      "payable": false,
      "stateMutability": "view",
      "type": "function"
    },
    {
      "constant": true,
      "inputs": [],
      "name": "owner",
      "outputs": [
        {
          "name": "",
          "type": "address"
        }
      ],
      "payable": false,
      "stateMutability": "view",
      "type": "function"
    },
    {
      "constant": true,
      "inputs": [],
      "name": "isEvaluatorSolutionSubmitted",
      "outputs": [
        {
          "name": "",
          "type": "bool"
        }
      ],
      "payable": false,
      "stateMutability": "view",
      "type": "function"
    },
    {
      "constant": true,
      "inputs": [],
      "name": "evaluatorProjectShares",
      "outputs": [
        {
          "name": "",
          "type": "uint256"
        }
      ],
      "payable": false,
      "stateMutability": "view",
      "type": "function"
    },
    {
      "constant": true,
      "inputs": [],
      "name": "contributorAddress",
      "outputs": [
        {
          "name": "",
          "type": "address"
        }
      ],
      "payable": false,
      "stateMutability": "view",
      "type": "function"
    },
    {
      "constant": true,
      "inputs": [],
      "name": "numberOfTaskNotes",
      "outputs": [
        {
          "name": "",
          "type": "uint256"
        }
      ],
      "payable": false,
      "stateMutability": "view",
      "type": "function"
    },
    {
      "constant": false,
      "inputs": [
        {
          "name": "_newOwner",
          "type": "address"
        }
      ],
      "name": "transferOwnership",
      "outputs": [],
      "payable": false,
      "stateMutability": "nonpayable",
      "type": "function"
    },
    {
      "constant": true,
      "inputs": [],
      "name": "taskTitle",
      "outputs": [
        {
          "name": "",
          "type": "string"
        }
      ],
      "payable": false,
      "stateMutability": "view",
      "type": "function"
    },
    {
      "inputs": [
        {
          "name": "_taskTitle",
          "type": "string"
        },
        {
          "name": "_contributorProjectShares",
          "type": "uint256"
        },
        {
          "name": "_evaluatorProjectShares",
          "type": "uint256"
        },
        {
          "name": "_projectAddress",
          "type": "address"
        }
      ],
      "payable": false,
      "stateMutability": "nonpayable",
      "type": "constructor"
    },
    {
      "anonymous": false,
      "inputs": [
        {
          "indexed": false,
          "name": "owner",
          "type": "address"
        },
        {
          "indexed": false,
          "name": "contributor",
          "type": "address"
        },
        {
          "indexed": false,
          "name": "shares",
          "type": "uint256"
        }
      ],
      "name": "ContributorTaskAccepted",
      "type": "event"
    },
    {
      "anonymous": false,
      "inputs": [
        {
          "indexed": false,
          "name": "owner",
          "type": "address"
        },
        {
          "indexed": false,
          "name": "evaluator",
          "type": "address"
        },
        {
          "indexed": false,
          "name": "shares",
          "type": "uint256"
        }
      ],
      "name": "EvaluatorTaskAccepted",
      "type": "event"
    },
    {
      "anonymous": false,
      "inputs": [
        {
          "indexed": true,
          "name": "previousOwner",
          "type": "address"
        }
      ],
      "name": "OwnershipRenounced",
      "type": "event"
    },
    {
      "anonymous": false,
      "inputs": [
        {
          "indexed": true,
          "name": "previousOwner",
          "type": "address"
        },
        {
          "indexed": true,
          "name": "newOwner",
          "type": "address"
        }
      ],
      "name": "OwnershipTransferred",
      "type": "event"
    },
    {
      "constant": false,
      "inputs": [
        {
          "name": "_address",
          "type": "address"
        }
      ],
      "name": "setContributorAddress",
      "outputs": [],
      "payable": false,
      "stateMutability": "nonpayable",
      "type": "function"
    },
    {
      "constant": true,
      "inputs": [],
      "name": "getContributorInformation",
      "outputs": [
        {
          "name": "addressContributor",
          "type": "address"
        },
        {
          "name": "projectShares",
          "type": "uint256"
        },
        {
          "name": "isSolutionSubmitted",
          "type": "bool"
        },
        {
          "name": "isSolutionAcceptedAndSharesTransferred",
          "type": "bool"
        }
      ],
      "payable": false,
      "stateMutability": "view",
      "type": "function"
    },
    {
      "constant": true,
      "inputs": [],
      "name": "getEvaluatorInformation",
      "outputs": [
        {
          "name": "addressEvaluator",
          "type": "address"
        },
        {
          "name": "ProjectShares",
          "type": "uint256"
        },
        {
          "name": "isSolutionSubmitted",
          "type": "bool"
        },
        {
          "name": "isSolutionAcceptedAndSharesTransferred",
          "type": "bool"
        }
      ],
      "payable": false,
      "stateMutability": "view",
      "type": "function"
    },
    {
      "constant": false,
      "inputs": [
        {
          "name": "_address",
          "type": "address"
        }
      ],
      "name": "setEvaluatorAddress",
      "outputs": [],
      "payable": false,
      "stateMutability": "nonpayable",
      "type": "function"
    },
    {
      "constant": false,
      "inputs": [
        {
          "name": "_note",
          "type": "string"
        },
        {
          "name": "_sendBy",
          "type": "uint256"
        }
      ],
      "name": "addNotes",
      "outputs": [],
      "payable": false,
      "stateMutability": "nonpayable",
      "type": "function"
    },
    {
      "constant": false,
      "inputs": [
        {
          "name": "_notes",
          "type": "string"
        }
      ],
      "name": "contributorDeliverablesAreReadyWithNotes",
      "outputs": [],
      "payable": false,
      "stateMutability": "nonpayable",
      "type": "function"
    },
    {
      "constant": false,
      "inputs": [
        {
          "name": "_notes",
          "type": "string"
        }
      ],
      "name": "evaluatorDeliverablesAreReadyWithNotes",
      "outputs": [],
      "payable": false,
      "stateMutability": "nonpayable",
      "type": "function"
    },
    {
      "constant": false,
      "inputs": [
        {
          "name": "_notes",
          "type": "string"
        }
      ],
      "name": "setNotes",
      "outputs": [],
      "payable": false,
      "stateMutability": "nonpayable",
      "type": "function"
    },
    {
      "constant": false,
      "inputs": [
        {
          "name": "_notes",
          "type": "string"
        }
      ],
      "name": "rejectContibutorTaskSubmissionAndSetNotes",
      "outputs": [],
      "payable": false,
      "stateMutability": "nonpayable",
      "type": "function"
    },
    {
      "constant": false,
      "inputs": [
        {
          "name": "_notes",
          "type": "string"
        }
      ],
      "name": "rejectEvaluatorTaskSubmissionAndSetNotes",
      "outputs": [],
      "payable": false,
      "stateMutability": "nonpayable",
      "type": "function"
    },
    {
      "constant": false,
      "inputs": [],
      "name": "markContributorTaskDoneAndTransferShare",
      "outputs": [],
      "payable": false,
      "stateMutability": "nonpayable",
      "type": "function"
    },
    {
      "constant": false,
      "inputs": [],
      "name": "markEvaluatorTaskDoneAndTransferShare",
      "outputs": [],
      "payable": false,
      "stateMutability": "nonpayable",
      "type": "function"
    }
  ],
  "bytecode": "0x60806040526000600560006101000a81548160ff0219169083151502179055506000600560016101000a81548160ff0219169083151502179055506000600760006101000a81548160ff0219169083151502179055506000600760016101000a81548160ff021916908315150217905550600060085560006009553480156200008757600080fd5b5060405162001dd238038062001dd283398101806040528101908080518201929190602001805190602001909291908051906020019092919080519060200190929190505050336000806101000a81548173ffffffffffffffffffffffffffffffffffffffff021916908373ffffffffffffffffffffffffffffffffffffffff160217905550600073ffffffffffffffffffffffffffffffffffffffff168173ffffffffffffffffffffffffffffffffffffffff16141515156200014a57600080fd5b600083101515156200015b57600080fd5b600082101515156200016c57600080fd5b600084511115156200017d57600080fd5b836001908051906020019062000195929190620001ef565b50826004819055508160068190555080600260006101000a81548173ffffffffffffffffffffffffffffffffffffffff021916908373ffffffffffffffffffffffffffffffffffffffff160217905550505050506200029e565b828054600181600116156101000203166002900490600052602060002090601f016020900481019282601f106200023257805160ff191683800117855562000263565b8280016001018555821562000263579182015b828111156200026257825182559160200191906001019062000245565b5b50905062000272919062000276565b5090565b6200029b91905b80821115620002975760008160009055506001016200027d565b5090565b90565b611b2480620002ae6000396000f30060806040526004361061015f576000357c0100000000000000000000000000000000000000000000000000000000900463ffffffff1680632124e4cc1461016457806333460e7f146102115780633804f0c0146102855780633a77c91a146102b05780633a8bae84146103195780633cf96af11461033057806347992797146103875780634a990c8b146103fb578063537dbb451461042a5780635a319a3a1461049357806361513264146104fc578063688e04331461056f578063715018a61461059e57806372e0576a146105b557806379bd45111461060c578063856ff264146106755780638b65e252146106a45780638da5cb5b146106bb5780638fc3ceb414610712578063a66ba55114610741578063b74c379b14610784578063c0bcec46146107c7578063cde5b4e1146107f2578063d1a1542c14610849578063d546c33d14610874578063f2fde38b146108dd578063f7222aad14610920575b600080fd5b34801561017057600080fd5b5061018f600480360381019080803590602001909291905050506109b0565b6040518080602001838152602001828103825284818151815260200191508051906020019080838360005b838110156101d55780820151818401526020810190506101ba565b50505050905090810190601f1680156102025780820380516001836020036101000a031916815260200191505b50935050505060405180910390f35b34801561021d57600080fd5b50610226610a6c565b604051808573ffffffffffffffffffffffffffffffffffffffff1673ffffffffffffffffffffffffffffffffffffffff168152602001848152602001831515151581526020018215151515815260200194505050505060405180910390f35b34801561029157600080fd5b5061029a610ac6565b6040518082815260200191505060405180910390f35b3480156102bc57600080fd5b50610317600480360381019080803590602001908201803590602001908080601f0160208091040260200160405190810160405280939291908181526020018383808284378201915050505050509192919290505050610acc565b005b34801561032557600080fd5b5061032e610d12565b005b34801561033c57600080fd5b50610345610eb5565b604051808273ffffffffffffffffffffffffffffffffffffffff1673ffffffffffffffffffffffffffffffffffffffff16815260200191505060405180910390f35b34801561039357600080fd5b5061039c610edb565b604051808573ffffffffffffffffffffffffffffffffffffffff1673ffffffffffffffffffffffffffffffffffffffff168152602001848152602001831515151581526020018215151515815260200194505050505060405180910390f35b34801561040757600080fd5b50610410610f35565b604051808215151515815260200191505060405180910390f35b34801561043657600080fd5b50610491600480360381019080803590602001908201803590602001908080601f0160208091040260200160405190810160405280939291908181526020018383808284378201915050505050509192919290505050610f48565b005b34801561049f57600080fd5b506104fa600480360381019080803590602001908201803590602001908080601f0160208091040260200160405190810160405280939291908181526020018383808284378201915050505050509192919290505050610fdd565b005b34801561050857600080fd5b5061056d600480360381019080803590602001908201803590602001908080601f016020809104026020016040519081016040528093929190818152602001838380828437820191505050505050919291929080359060200190929190505050611093565b005b34801561057b57600080fd5b50610584611130565b604051808215151515815260200191505060405180910390f35b3480156105aa57600080fd5b506105b3611143565b005b3480156105c157600080fd5b506105ca611245565b604051808273ffffffffffffffffffffffffffffffffffffffff1673ffffffffffffffffffffffffffffffffffffffff16815260200191505060405180910390f35b34801561061857600080fd5b50610673600480360381019080803590602001908201803590602001908080601f016020809104026020016040519081016040528093929190818152602001838380828437820191505050505050919291929050505061126b565b005b34801561068157600080fd5b5061068a611321565b604051808215151515815260200191505060405180910390f35b3480156106b057600080fd5b506106b9611334565b005b3480156106c757600080fd5b506106d06114d4565b604051808273ffffffffffffffffffffffffffffffffffffffff1673ffffffffffffffffffffffffffffffffffffffff16815260200191505060405180910390f35b34801561071e57600080fd5b506107276114f9565b604051808215151515815260200191505060405180910390f35b34801561074d57600080fd5b50610782600480360381019080803573ffffffffffffffffffffffffffffffffffffffff16906020019092919050505061150c565b005b34801561079057600080fd5b506107c5600480360381019080803573ffffffffffffffffffffffffffffffffffffffff169060200190929190505050611609565b005b3480156107d357600080fd5b506107dc611706565b6040518082815260200191505060405180910390f35b3480156107fe57600080fd5b5061080761170c565b604051808273ffffffffffffffffffffffffffffffffffffffff1673ffffffffffffffffffffffffffffffffffffffff16815260200191505060405180910390f35b34801561085557600080fd5b5061085e611732565b6040518082815260200191505060405180910390f35b34801561088057600080fd5b506108db600480360381019080803590602001908201803590602001908080601f0160208091040260200160405190810160405280939291908181526020018383808284378201915050505050509192919290505050611738565b005b3480156108e957600080fd5b5061091e600480360381019080803573ffffffffffffffffffffffffffffffffffffffff1690602001909291905050506117cd565b005b34801561092c57600080fd5b50610935611834565b6040518080602001828103825283818151815260200191508051906020019080838360005b8381101561097557808201518184015260208101905061095a565b50505050905090810190601f1680156109a25780820380516001836020036101000a031916815260200191505b509250505060405180910390f35b600a602052806000526040600020600091509050806000018054600181600116156101000203166002900480601f016020809104026020016040519081016040528092919081815260200182805460018160011615610100020316600290048015610a5c5780601f10610a3157610100808354040283529160200191610a5c565b820191906000526020600020905b815481529060010190602001808311610a3f57829003601f168201915b5050505050908060010154905082565b600080600080600360009054906101000a900473ffffffffffffffffffffffffffffffffffffffff1693506004549250600560009054906101000a900460ff169150600560019054906101000a900460ff16905090919293565b60045481565b600360009054906101000a900473ffffffffffffffffffffffffffffffffffffffff1673ffffffffffffffffffffffffffffffffffffffff163373ffffffffffffffffffffffffffffffffffffffff161480610b755750600560029054906101000a900473ffffffffffffffffffffffffffffffffffffffff1673ffffffffffffffffffffffffffffffffffffffff163373ffffffffffffffffffffffffffffffffffffffff16145b80610bcc57506000809054906101000a900473ffffffffffffffffffffffffffffffffffffffff1673ffffffffffffffffffffffffffffffffffffffff163373ffffffffffffffffffffffffffffffffffffffff16145b1515610bd757600080fd5b6000809054906101000a900473ffffffffffffffffffffffffffffffffffffffff1673ffffffffffffffffffffffffffffffffffffffff163373ffffffffffffffffffffffffffffffffffffffff161415610c355760016008819055505b600360009054906101000a900473ffffffffffffffffffffffffffffffffffffffff1673ffffffffffffffffffffffffffffffffffffffff163373ffffffffffffffffffffffffffffffffffffffff161415610c945760026008819055505b600560029054906101000a900473ffffffffffffffffffffffffffffffffffffffff1673ffffffffffffffffffffffffffffffffffffffff163373ffffffffffffffffffffffffffffffffffffffff161415610cf35760036008819055505b60008151111515610d0357600080fd5b610d0f81600854611093565b50565b6000809054906101000a900473ffffffffffffffffffffffffffffffffffffffff1673ffffffffffffffffffffffffffffffffffffffff163373ffffffffffffffffffffffffffffffffffffffff16141515610d6d57600080fd5b6001600760006101000a81548160ff02191690831515021790551515610d9257600080fd5b60001515600760019054906101000a900460ff161515141515610db457600080fd5b6001600760016101000a81548160ff0219169083151502179055507f2e8f320f26e1408a887da348ca3e09c9a8b4ac4fdf759aaa8fc94bef12bb59296000809054906101000a900473ffffffffffffffffffffffffffffffffffffffff16600560029054906101000a900473ffffffffffffffffffffffffffffffffffffffff16600654604051808473ffffffffffffffffffffffffffffffffffffffff1673ffffffffffffffffffffffffffffffffffffffff1681526020018373ffffffffffffffffffffffffffffffffffffffff1673ffffffffffffffffffffffffffffffffffffffff168152602001828152602001935050505060405180910390a1565b600260009054906101000a900473ffffffffffffffffffffffffffffffffffffffff1681565b600080600080600560029054906101000a900473ffffffffffffffffffffffffffffffffffffffff1693506006549250600760009054906101000a900460ff169150600760019054906101000a900460ff16905090919293565b600560009054906101000a900460ff1681565b600560029054906101000a900473ffffffffffffffffffffffffffffffffffffffff1673ffffffffffffffffffffffffffffffffffffffff163373ffffffffffffffffffffffffffffffffffffffff16141515610fa457600080fd5b60008151111515610fb457600080fd5b6001600760006101000a81548160ff021916908315150217905550610fda816003611093565b50565b6000809054906101000a900473ffffffffffffffffffffffffffffffffffffffff1673ffffffffffffffffffffffffffffffffffffffff163373ffffffffffffffffffffffffffffffffffffffff1614151561103857600080fd5b60011515600760009054906101000a900460ff16151514151561105a57600080fd5b6000815111151561106a57600080fd5b6000600760006101000a81548160ff021916908315150217905550611090816001611093565b50565b604080519081016040528083815260200182815250600b60008201518160000190805190602001906110c69291906119cc565b5060208201518160010155905050600b600a6000600954815260200190815260200160002060008201816000019080546001816001161561010002031660029004611112929190611a4c565b50600182015481600101559050506001600954016009819055505050565b600560019054906101000a900460ff1681565b6000809054906101000a900473ffffffffffffffffffffffffffffffffffffffff1673ffffffffffffffffffffffffffffffffffffffff163373ffffffffffffffffffffffffffffffffffffffff1614151561119e57600080fd5b6000809054906101000a900473ffffffffffffffffffffffffffffffffffffffff1673ffffffffffffffffffffffffffffffffffffffff167ff8df31144d9c2f0f6b59d69b8b98abd5459d07f2742c4df920b25aae33c6482060405160405180910390a260008060006101000a81548173ffffffffffffffffffffffffffffffffffffffff021916908373ffffffffffffffffffffffffffffffffffffffff160217905550565b600560029054906101000a900473ffffffffffffffffffffffffffffffffffffffff1681565b6000809054906101000a900473ffffffffffffffffffffffffffffffffffffffff1673ffffffffffffffffffffffffffffffffffffffff163373ffffffffffffffffffffffffffffffffffffffff161415156112c657600080fd5b60011515600560009054906101000a900460ff1615151415156112e857600080fd5b600081511115156112f857600080fd5b6000600560006101000a81548160ff02191690831515021790555061131e816001611093565b50565b600760019054906101000a900460ff1681565b6000809054906101000a900473ffffffffffffffffffffffffffffffffffffffff1673ffffffffffffffffffffffffffffffffffffffff163373ffffffffffffffffffffffffffffffffffffffff1614151561138f57600080fd5b60011515600560009054906101000a900460ff1615151415156113b157600080fd5b60001515600560019054906101000a900460ff1615151415156113d357600080fd5b6001600560016101000a81548160ff0219169083151502179055507f2e705641ef3838701162829c9931a82fbb60ea6b84992d297d1654cc31ce0d8b6000809054906101000a900473ffffffffffffffffffffffffffffffffffffffff16600360009054906101000a900473ffffffffffffffffffffffffffffffffffffffff16600454604051808473ffffffffffffffffffffffffffffffffffffffff1673ffffffffffffffffffffffffffffffffffffffff1681526020018373ffffffffffffffffffffffffffffffffffffffff1673ffffffffffffffffffffffffffffffffffffffff168152602001828152602001935050505060405180910390a1565b6000809054906101000a900473ffffffffffffffffffffffffffffffffffffffff1681565b600760009054906101000a900460ff1681565b6000809054906101000a900473ffffffffffffffffffffffffffffffffffffffff1673ffffffffffffffffffffffffffffffffffffffff163373ffffffffffffffffffffffffffffffffffffffff1614151561156757600080fd5b600073ffffffffffffffffffffffffffffffffffffffff168173ffffffffffffffffffffffffffffffffffffffff16141515156115a357600080fd5b60001515600760019054906101000a900460ff1615151415156115c557600080fd5b80600560026101000a81548173ffffffffffffffffffffffffffffffffffffffff021916908373ffffffffffffffffffffffffffffffffffffffff16021790555050565b6000809054906101000a900473ffffffffffffffffffffffffffffffffffffffff1673ffffffffffffffffffffffffffffffffffffffff163373ffffffffffffffffffffffffffffffffffffffff1614151561166457600080fd5b600073ffffffffffffffffffffffffffffffffffffffff168173ffffffffffffffffffffffffffffffffffffffff16141515156116a057600080fd5b60001515600560019054906101000a900460ff1615151415156116c257600080fd5b80600360006101000a81548173ffffffffffffffffffffffffffffffffffffffff021916908373ffffffffffffffffffffffffffffffffffffffff16021790555050565b60065481565b600360009054906101000a900473ffffffffffffffffffffffffffffffffffffffff1681565b60095481565b600360009054906101000a900473ffffffffffffffffffffffffffffffffffffffff1673ffffffffffffffffffffffffffffffffffffffff163373ffffffffffffffffffffffffffffffffffffffff1614151561179457600080fd5b600081511115156117a457600080fd5b6001600560006101000a81548160ff0219169083151502179055506117ca816002611093565b50565b6000809054906101000a900473ffffffffffffffffffffffffffffffffffffffff1673ffffffffffffffffffffffffffffffffffffffff163373ffffffffffffffffffffffffffffffffffffffff1614151561182857600080fd5b611831816118d2565b50565b60018054600181600116156101000203166002900480601f0160208091040260200160405190810160405280929190818152602001828054600181600116156101000203166002900480156118ca5780601f1061189f576101008083540402835291602001916118ca565b820191906000526020600020905b8154815290600101906020018083116118ad57829003601f168201915b505050505081565b600073ffffffffffffffffffffffffffffffffffffffff168173ffffffffffffffffffffffffffffffffffffffff161415151561190e57600080fd5b8073ffffffffffffffffffffffffffffffffffffffff166000809054906101000a900473ffffffffffffffffffffffffffffffffffffffff1673ffffffffffffffffffffffffffffffffffffffff167f8be0079c531659141344cd1fd0a4f28419497f9722a3daafe3b4186f6b6457e060405160405180910390a3806000806101000a81548173ffffffffffffffffffffffffffffffffffffffff021916908373ffffffffffffffffffffffffffffffffffffffff16021790555050565b828054600181600116156101000203166002900490600052602060002090601f016020900481019282601f10611a0d57805160ff1916838001178555611a3b565b82800160010185558215611a3b579182015b82811115611a3a578251825591602001919060010190611a1f565b5b509050611a489190611ad3565b5090565b828054600181600116156101000203166002900490600052602060002090601f016020900481019282601f10611a855780548555611ac2565b82800160010185558215611ac257600052602060002091601f016020900482015b82811115611ac1578254825591600101919060010190611aa6565b5b509050611acf9190611ad3565b5090565b611af591905b80821115611af1576000816000905550600101611ad9565b5090565b905600a165627a7a72305820724611c83d35a588cb4f5423ad7e6e7599b04f630982cd7156e617f7f506dd170029",
  "source": "pragma solidity ^0.4.24;\r\n\r\nimport './contracts/ownership/Ownable.sol';\r\nimport './ProjectEquity.sol';\r\n\r\ncontract ProjectTask is Ownable {\r\n\r\n   //------------------------------------------------------------------------------------------\r\n   // Task related information\r\n   //------------------------------------------------------------------------------------------\r\n   string public taskTitle;\r\n   address public projectAddress;\r\n\r\n   \r\n   //------------------------------------------------------------------------------------------\r\n   // Contributor's parameters    address, shares, solution submitted, solution accepted\r\n   //------------------------------------------------------------------------------------------\r\n   address public contributorAddress;\r\n   uint public contributorProjectShares;\r\n   bool public isContributorSolutionSubmitted = false;\r\n   bool public isContributorSolutionAcceptedAndSharesTransferred = false;\r\n\r\n   \r\n   //------------------------------------------------------------------------------------------\r\n   // Evaluator's parameters    address, shares, solution submitted, solution accepted\r\n   //------------------------------------------------------------------------------------------   \r\n   address public evaluatorAddress;\r\n   uint public evaluatorProjectShares;\r\n   bool public isEvaluatorSolutionSubmitted = false;\r\n   bool public isEvaluatorSolutionAcceptedAndSharesTransferred = false;\r\n\r\n   \r\n   //------------------------------------------------------------------------------------------   \r\n   // Temporary variable set in modifier onlyParticipent and used in setNote public function\r\n   //------------------------------------------------------------------------------------------   \r\n   uint tempNoteSendBy = 0;\r\n   \r\n   \r\n   //----------------------------------------------------------------------------------------------------\r\n   // Local Tasks collection.   All tasks that belong to this project are collected in this collection\r\n   // They are added in the order they are received \r\n   //----------------------------------------------------------------------------------------------------\r\n   uint public numberOfTaskNotes = 0;   //current number of notes\r\n   struct taskNoteStruct {             //project structure\r\n\t\tstring notes;\r\n\t\tuint sendBy;       // 1=Owner     2=Contributor     3=Evaluator\r\n   }\r\n   mapping (uint => taskNoteStruct) public taskNotes;     //mapping of task notes\r\n\r\n      \r\n   event ContributorTaskAccepted(address owner, address contributor, uint shares);\r\n   event EvaluatorTaskAccepted(address owner, address evaluator, uint shares);\r\n   \r\n   \r\n  //-------------------------------------------------\r\n  // Contract Constructor \r\n  //-------------------------------------------------   \r\n   constructor(\r\n\t  string _taskTitle,                            // Task title \r\n\t  uint _contributorProjectShares,               // Contributor's shares \r\n\t  uint _evaluatorProjectShares,                 // Evaluator's shares \r\n\t  address _projectAddress                       // Project address to which this contract belong \r\n   )\r\n   public {\r\n      require(_projectAddress != address(0));\r\n\t  require(_contributorProjectShares >= 0);\r\n\t  require(_evaluatorProjectShares >= 0);\r\n\t  require(bytes(_taskTitle).length > 0);\r\n\t     \r\n      taskTitle = _taskTitle;\r\n \t  contributorProjectShares = _contributorProjectShares;\r\n\t  evaluatorProjectShares = _evaluatorProjectShares;\r\n\t  projectAddress = _projectAddress;\r\n   }\r\n\r\n\r\n  //-------------------------------------------------\r\n  // Check message is send by only contributor \r\n  //-------------------------------------------------      \r\n  modifier onlyContributor() {\r\n    require(msg.sender == contributorAddress);\r\n    _;\r\n  }\r\n   \r\n   \r\n  //-------------------------------------------------\r\n  // Check message is send by only evaluator \r\n  //-------------------------------------------------         \r\n  modifier onlyEvaluator() {\r\n    require(msg.sender == evaluatorAddress);\r\n    _;\r\n  }\r\n  \r\n\r\n  \r\n  //----------------------------------------------------------------------------------------------\r\n  // Check message is send by only contributor, evaluator or project owner \r\n  // Also set tempNoteSendBy who send the message     owner = 1, contributor = 2, evaluator = 3\r\n  //----------------------------------------------------------------------------------------------        \r\n  modifier onlyParticipent () {\r\n     require(msg.sender == contributorAddress || msg.sender == evaluatorAddress || msg.sender == owner);\r\n\t \r\n\t if(msg.sender == owner) \r\n\t    tempNoteSendBy = 1;\r\n\t if(msg.sender == contributorAddress) \r\n\t    tempNoteSendBy = 2;\r\n\t if(msg.sender == evaluatorAddress) \r\n\t    tempNoteSendBy = 3;\r\n\t _;\r\n  }\r\n   \r\n\r\n\r\n   //----------------------------------------------------------------------------------------------\r\n   // Owner can set contributor's address.   Only set contrinutor can send notes or deliverables \r\n   //----------------------------------------------------------------------------------------------   \r\n   function setContributorAddress(address _address) onlyOwner public {\r\n\t   require(_address != address(0));\r\n\t   \r\n\t   require(isContributorSolutionAcceptedAndSharesTransferred == false);\t\t\r\n\t   contributorAddress = _address;\r\n   }\r\n\t\r\n\t\r\n    \r\n\tfunction getContributorInformation() view public returns(\r\n\t   address addressContributor,\r\n\t   uint projectShares,\r\n\t   bool isSolutionSubmitted,\r\n\t   bool isSolutionAcceptedAndSharesTransferred\r\n\t) {\r\n\t\t   addressContributor = contributorAddress;\r\n\t\t   projectShares = contributorProjectShares;\r\n\t\t   isSolutionSubmitted = isContributorSolutionSubmitted;\r\n\t\t   isSolutionAcceptedAndSharesTransferred = isContributorSolutionAcceptedAndSharesTransferred;\r\n\t}\r\n\r\n\r\n\r\n\t\r\n\tfunction getEvaluatorInformation() view public returns(\r\n\t   address addressEvaluator,\r\n\t   uint ProjectShares,\r\n\t   bool isSolutionSubmitted,\r\n\t   bool isSolutionAcceptedAndSharesTransferred\r\n\t) {\r\n\t    addressEvaluator = evaluatorAddress;\r\n\t    ProjectShares = evaluatorProjectShares;\r\n\t    isSolutionSubmitted = isEvaluatorSolutionSubmitted;\r\n\t    isSolutionAcceptedAndSharesTransferred = isEvaluatorSolutionAcceptedAndSharesTransferred;\r\n\t}\r\n\r\n\r\n\t\r\n\t\r\n\t\r\n   //----------------------------------------------------------------------------------------------\r\n   // Owner can set evaluator's address.   Only set evaluator can send notes or deliverables \r\n   //----------------------------------------------------------------------------------------------   \t\r\n\tfunction setEvaluatorAddress(address _address) onlyOwner public  {\r\n\t   require(_address != address(0));\r\n\t   \r\n\t   require(isEvaluatorSolutionAcceptedAndSharesTransferred == false);\t\t\r\n\t   evaluatorAddress = _address;\r\n\t}\r\n\r\n\t\r\n\t\r\n   //----------------------------------------\r\n   // Add notes to local notes collection \r\n   //----------------------------------------\r\n\ttaskNoteStruct newNotes;\r\n\tfunction addNotes (string _note, uint _sendBy) public\r\n\t{\t\t\r\n\t\tnewNotes = taskNoteStruct(_note, _sendBy);\r\n\t\ttaskNotes[numberOfTaskNotes] = newNotes;\r\n\t\tnumberOfTaskNotes = numberOfTaskNotes + 1;\r\n\t}\r\n\r\n\t\r\n\r\n   //----------------------------------------------------------------------------------------------   \t\r\n   // Contributor can send deliverables. only current contributor can call this function and \r\n   // owner can change contributor \r\n   //----------------------------------------------------------------------------------------------   \t\r\n\tfunction contributorDeliverablesAreReadyWithNotes(string _notes) onlyContributor public  {\r\n\t\trequire(bytes(_notes).length > 0);\r\n\t\t\r\n\t\tisContributorSolutionSubmitted = true;\r\n\t\taddNotes(_notes, 2);\r\n\t}\r\n\r\n\t\r\n\t\r\n\t\r\n   //----------------------------------------------------------------------------------------------   \t\r\n   // Evaluator can send deliverables. only current evaluator can call this function and \r\n   // owner can change evaluator \r\n   //----------------------------------------------------------------------------------------------   \t\r\n\tfunction evaluatorDeliverablesAreReadyWithNotes(string _notes) onlyEvaluator public  {\r\n\t\trequire(bytes(_notes).length > 0);\r\n\t\t\r\n\t\tisEvaluatorSolutionSubmitted = true;\r\n\t\taddNotes(_notes, 3);\t\r\n\t}\r\n\r\n\t\r\n\t\r\n\t\t\r\n   //------------------------------------------------  \r\n   // Owner, contributor or evaluator can send notes \r\n   //------------------------------------------------\r\n\tfunction setNotes(string _notes) onlyParticipent  public {\r\n\t\trequire(bytes(_notes).length > 0);\r\n\t\t\r\n\t\taddNotes(_notes, tempNoteSendBy);\r\n\t}\r\n\r\n\t\r\n\t\r\n\t\r\n   //-------------------------------------------------------  \r\n   // Owner can reject contributor deliverables with notes \r\n   //-------------------------------------------------------\t\r\n\tfunction rejectContibutorTaskSubmissionAndSetNotes(string _notes) onlyOwner public {\r\n\t\trequire(isContributorSolutionSubmitted == true);\r\n\t\trequire(bytes(_notes).length > 0);\r\n\t\t\r\n\t\tisContributorSolutionSubmitted = false;\r\n\t\taddNotes(_notes, 1);\t\r\n\t}\r\n\r\n\t\r\n\t\r\n\t\r\n   //-------------------------------------------------------  \r\n   // Owner can reject evaluator deliverables with notes \r\n   //-------------------------------------------------------\r\n\tfunction rejectEvaluatorTaskSubmissionAndSetNotes(string _notes) onlyOwner public {\r\n\t\trequire(isEvaluatorSolutionSubmitted == true);\r\n\t\trequire(bytes(_notes).length > 0);\r\n\t\t\r\n\t\tisEvaluatorSolutionSubmitted = false;\r\n\t\taddNotes(_notes, 1);\t\r\n\t}\r\n\r\n\t\r\n\t\r\n\t\r\n   //--------------------------------------------------------------------\r\n   // Owner can finalized the contributor's submissions. \r\n   // This will call the project contractt to transfer equity to contributor \r\n   //--------------------------------------------------------------------\r\n\tfunction markContributorTaskDoneAndTransferShare() onlyOwner public  {\r\n\t\trequire(isContributorSolutionSubmitted == true);\r\n\t\trequire(isContributorSolutionAcceptedAndSharesTransferred == false);\r\n\t\t\t\t\r\n\t    // call the project contract and transfer share/equity to contributor\r\n\t\t//ProjectEquity receiver = ProjectEquity(projectAddress);\r\n\t\t//require(receiver.transferFrom(owner, contributorAddress, contributorProjectShares));\t\t\r\n\t\t\r\n\t\t//Set variable that contributor submission is accepted and shares are transferred\r\n\t\tisContributorSolutionAcceptedAndSharesTransferred = true;\r\n\t\t\r\n\t\t//Generate event \r\n\t\temit ContributorTaskAccepted(owner, contributorAddress, contributorProjectShares);\r\n\t}\r\n\t\r\n\t\r\n\t\r\n\t\r\n   //--------------------------------------------------------------------\r\n   // Owner can finalized the evaluator's submissions. \r\n   // This will call the projectt to transfer equity to contributor \r\n   //--------------------------------------------------------------------\r\n\tfunction markEvaluatorTaskDoneAndTransferShare() onlyOwner public  {\r\n\t\trequire(isEvaluatorSolutionSubmitted = true);\r\n\t\trequire(isEvaluatorSolutionAcceptedAndSharesTransferred == false);\r\n\t\t\r\n\t\t// call the project contract and  transfer share/equity to evaluator \r\n\t\t//ProjectEquity receiver = ProjectEquity(projectAddress);\r\n\t\t//require(receiver.transferFrom(owner, evaluatorAddress, evaluatorProjectShares));\r\n\t\t\r\n\t\t//Set variable that evaluator submission is accepted and shares are transferred\r\n\t\tisEvaluatorSolutionAcceptedAndSharesTransferred = true;\r\n\t\t\r\n\t\t//Genetate event \r\n\t\temit EvaluatorTaskAccepted(owner, evaluatorAddress, evaluatorProjectShares);\r\n\t}\r\n\r\n\r\n\r\n}",
  "sourcePath": "F:\\Projects\\work\\VF\\blockchain\\contracts\\ProjectTask.sol",
  "compiler": {
    "name": "solc",
    "version": "0.4.24+commit.e67f0147.Emscripten.clang"
  },
  "schemaVersion": "2.0.1",
  "updatedAt": "2018-10-21T19:19:12.432Z"
}