{
  "contractName": "ProjectEquity2",
  "abi": [
    {
      "constant": true,
      "inputs": [],
      "name": "name",
      "outputs": [
        {
          "name": "",
          "type": "string"
        }
      ],
      "payable": false,
      "stateMutability": "view",
      "type": "function"
    },
    {
      "constant": true,
      "inputs": [],
      "name": "decimals",
      "outputs": [
        {
          "name": "",
          "type": "uint256"
        }
      ],
      "payable": false,
      "stateMutability": "view",
      "type": "function"
    },
    {
      "constant": true,
      "inputs": [],
      "name": "numberOfTotalTasksInArray",
      "outputs": [
        {
          "name": "",
          "type": "uint256"
        }
      ],
      "payable": false,
      "stateMutability": "view",
      "type": "function"
    },
    {
      "constant": true,
      "inputs": [
        {
          "name": "",
          "type": "uint256"
        }
      ],
      "name": "tasksAddresses",
      "outputs": [
        {
          "name": "",
          "type": "address"
        }
      ],
      "payable": false,
      "stateMutability": "view",
      "type": "function"
    },
    {
      "constant": false,
      "inputs": [],
      "name": "renounceOwnership",
      "outputs": [],
      "payable": false,
      "stateMutability": "nonpayable",
      "type": "function"
    },
    {
      "constant": true,
      "inputs": [],
      "name": "owner",
      "outputs": [
        {
          "name": "",
          "type": "address"
        }
      ],
      "payable": false,
      "stateMutability": "view",
      "type": "function"
    },
    {
      "constant": true,
      "inputs": [],
      "name": "symbol",
      "outputs": [
        {
          "name": "",
          "type": "string"
        }
      ],
      "payable": false,
      "stateMutability": "view",
      "type": "function"
    },
    {
      "constant": false,
      "inputs": [
        {
          "name": "_newOwner",
          "type": "address"
        }
      ],
      "name": "transferOwnership",
      "outputs": [],
      "payable": false,
      "stateMutability": "nonpayable",
      "type": "function"
    },
    {
      "inputs": [
        {
          "name": "_projectOwner",
          "type": "address"
        },
        {
          "name": "_incubatorOwnerAddres",
          "type": "address"
        },
        {
          "name": "_incubatorOwnerPercentageInProject",
          "type": "uint256"
        },
        {
          "name": "_ventureFusionAddress",
          "type": "address"
        },
        {
          "name": "_ventureFusionPercentageInProject",
          "type": "uint256"
        },
        {
          "name": "_decimals",
          "type": "uint256"
        }
      ],
      "payable": false,
      "stateMutability": "nonpayable",
      "type": "constructor"
    },
    {
      "anonymous": false,
      "inputs": [
        {
          "indexed": true,
          "name": "from",
          "type": "address"
        },
        {
          "indexed": true,
          "name": "to",
          "type": "address"
        },
        {
          "indexed": false,
          "name": "value",
          "type": "uint256"
        }
      ],
      "name": "Transfer",
      "type": "event"
    },
    {
      "anonymous": false,
      "inputs": [
        {
          "indexed": true,
          "name": "from",
          "type": "address"
        },
        {
          "indexed": true,
          "name": "to",
          "type": "address"
        },
        {
          "indexed": false,
          "name": "value",
          "type": "uint256"
        }
      ],
      "name": "Approval",
      "type": "event"
    },
    {
      "anonymous": false,
      "inputs": [
        {
          "indexed": true,
          "name": "previousOwner",
          "type": "address"
        }
      ],
      "name": "OwnershipRenounced",
      "type": "event"
    },
    {
      "anonymous": false,
      "inputs": [
        {
          "indexed": true,
          "name": "previousOwner",
          "type": "address"
        },
        {
          "indexed": true,
          "name": "newOwner",
          "type": "address"
        }
      ],
      "name": "OwnershipTransferred",
      "type": "event"
    },
    {
      "constant": false,
      "inputs": [
        {
          "name": "_to",
          "type": "address"
        },
        {
          "name": "_value",
          "type": "uint256"
        }
      ],
      "name": "transfer",
      "outputs": [
        {
          "name": "",
          "type": "bool"
        }
      ],
      "payable": false,
      "stateMutability": "nonpayable",
      "type": "function"
    },
    {
      "constant": false,
      "inputs": [
        {
          "name": "_spender",
          "type": "address"
        },
        {
          "name": "_value",
          "type": "uint256"
        }
      ],
      "name": "approve",
      "outputs": [
        {
          "name": "",
          "type": "bool"
        }
      ],
      "payable": false,
      "stateMutability": "nonpayable",
      "type": "function"
    },
    {
      "constant": true,
      "inputs": [
        {
          "name": "_owner",
          "type": "address"
        },
        {
          "name": "_spender",
          "type": "address"
        }
      ],
      "name": "allowance",
      "outputs": [
        {
          "name": "",
          "type": "uint256"
        }
      ],
      "payable": false,
      "stateMutability": "view",
      "type": "function"
    },
    {
      "constant": false,
      "inputs": [
        {
          "name": "_from",
          "type": "address"
        },
        {
          "name": "_to",
          "type": "address"
        },
        {
          "name": "_value",
          "type": "uint256"
        }
      ],
      "name": "transferFrom",
      "outputs": [
        {
          "name": "",
          "type": "bool"
        }
      ],
      "payable": false,
      "stateMutability": "nonpayable",
      "type": "function"
    },
    {
      "constant": true,
      "inputs": [
        {
          "name": "_shareHolder",
          "type": "address"
        }
      ],
      "name": "balanceOf",
      "outputs": [
        {
          "name": "",
          "type": "uint256"
        }
      ],
      "payable": false,
      "stateMutability": "view",
      "type": "function"
    },
    {
      "constant": false,
      "inputs": [
        {
          "name": "_taskTitle",
          "type": "string"
        },
        {
          "name": "_contributorSharesOffered",
          "type": "uint256"
        },
        {
          "name": "_evaluatorSharesOffered",
          "type": "uint256"
        }
      ],
      "name": "launchNewTask",
      "outputs": [
        {
          "name": "",
          "type": "bool"
        }
      ],
      "payable": false,
      "stateMutability": "nonpayable",
      "type": "function"
    }
  ],
  "bytecode": "0x608060405260006006553480156200001657600080fd5b5060405160c0806200351c8339810180604052810190808051906020019092919080519060200190929190805190602001909291908051906020019092919080519060200190929190805190602001909291905050506000336000806101000a81548173ffffffffffffffffffffffffffffffffffffffff021916908373ffffffffffffffffffffffffffffffffffffffff160217905550600073ffffffffffffffffffffffffffffffffffffffff168773ffffffffffffffffffffffffffffffffffffffff1614151515620000eb57600080fd5b600073ffffffffffffffffffffffffffffffffffffffff168673ffffffffffffffffffffffffffffffffffffffff16141515156200012857600080fd5b600073ffffffffffffffffffffffffffffffffffffffff168473ffffffffffffffffffffffffffffffffffffffff16141515156200016557600080fd5b600085101515156200017657600080fd5b600083101515156200018757600080fd5b6000821115156200019757600080fd5b81606402905084600460008873ffffffffffffffffffffffffffffffffffffffff1673ffffffffffffffffffffffffffffffffffffffff1681526020019081526020016000208190555082600460008673ffffffffffffffffffffffffffffffffffffffff1673ffffffffffffffffffffffffffffffffffffffff168152602001908152602001600020819055506200024a83860182620002a164010000000002620014c2179091906401000000009004565b600460008973ffffffffffffffffffffffffffffffffffffffff1673ffffffffffffffffffffffffffffffffffffffff168152602001908152602001600020819055508160038190555050505050505050620002bb565b6000828211151515620002b057fe5b818303905092915050565b61325180620002cb6000396000f300608060405260043610620000df576000357c0100000000000000000000000000000000000000000000000000000000900463ffffffff16806306fdde0314620000e4578063095ea7b3146200017a5780631740ea5c14620001e257806323b872dd146200027a578063313ce5671462000302578063425e7b8c1462000330578063523cf237146200035e57806370a0823114620003ce578063715018a614620004285780638da5cb5b146200044257806395d89b41146200049c578063a9059cbb1462000532578063dd62ed3e146200059a578063f2fde38b1462000614575b600080fd5b348015620000f157600080fd5b50620000fc6200065a565b6040518080602001828103825283818151815260200191508051906020019080838360005b838110156200013e57808201518184015260208101905062000121565b50505050905090810190601f1680156200016c5780820380516001836020036101000a031916815260200191505b509250505060405180910390f35b3480156200018757600080fd5b50620001c8600480360381019080803573ffffffffffffffffffffffffffffffffffffffff16906020019092919080359060200190929190505050620006fc565b604051808215151515815260200191505060405180910390f35b348015620001ef57600080fd5b5062000260600480360381019080803590602001908201803590602001908080601f01602080910402602001604051908101604052809392919081815260200183838082843782019150505050505091929192908035906020019092919080359060200190929190505050620007ee565b604051808215151515815260200191505060405180910390f35b3480156200028757600080fd5b50620002e8600480360381019080803573ffffffffffffffffffffffffffffffffffffffff169060200190929190803573ffffffffffffffffffffffffffffffffffffffff1690602001909291908035906020019092919050505062000b7f565b604051808215151515815260200191505060405180910390f35b3480156200030f57600080fd5b506200031a62000f48565b6040518082815260200191505060405180910390f35b3480156200033d57600080fd5b506200034862000f4e565b6040518082815260200191505060405180910390f35b3480156200036b57600080fd5b506200038c6004803603810190808035906020019092919050505062000f54565b604051808273ffffffffffffffffffffffffffffffffffffffff1673ffffffffffffffffffffffffffffffffffffffff16815260200191505060405180910390f35b348015620003db57600080fd5b5062000412600480360381019080803573ffffffffffffffffffffffffffffffffffffffff16906020019092919050505062000f93565b6040518082815260200191505060405180910390f35b3480156200043557600080fd5b506200044062000fdc565b005b3480156200044f57600080fd5b506200045a620010df565b604051808273ffffffffffffffffffffffffffffffffffffffff1673ffffffffffffffffffffffffffffffffffffffff16815260200191505060405180910390f35b348015620004a957600080fd5b50620004b462001104565b6040518080602001828103825283818151815260200191508051906020019080838360005b83811015620004f6578082015181840152602081019050620004d9565b50505050905090810190601f168015620005245780820380516001836020036101000a031916815260200191505b509250505060405180910390f35b3480156200053f57600080fd5b5062000580600480360381019080803573ffffffffffffffffffffffffffffffffffffffff16906020019092919080359060200190929190505050620011a6565b604051808215151515815260200191505060405180910390f35b348015620005a757600080fd5b50620005fe600480360381019080803573ffffffffffffffffffffffffffffffffffffffff169060200190929190803573ffffffffffffffffffffffffffffffffffffffff169060200190929190505050620013d1565b6040518082815260200191505060405180910390f35b3480156200062157600080fd5b5062000658600480360381019080803573ffffffffffffffffffffffffffffffffffffffff16906020019092919050505062001458565b005b60018054600181600116156101000203166002900480601f016020809104026020016040519081016040528092919081815260200182805460018160011615610100020316600290048015620006f45780601f10620006c857610100808354040283529160200191620006f4565b820191906000526020600020905b815481529060010190602001808311620006d657829003601f168201915b505050505081565b600081600560003373ffffffffffffffffffffffffffffffffffffffff1673ffffffffffffffffffffffffffffffffffffffff16815260200190815260200160002060008573ffffffffffffffffffffffffffffffffffffffff1673ffffffffffffffffffffffffffffffffffffffff168152602001908152602001600020819055508273ffffffffffffffffffffffffffffffffffffffff163373ffffffffffffffffffffffffffffffffffffffff167f8c5be1e5ebec7d5bd14f71427d1e84f3dd0314c0f7b2291e5b200ac8c7c3b925846040518082815260200191505060405180910390a36001905092915050565b6000806000809054906101000a900473ffffffffffffffffffffffffffffffffffffffff1673ffffffffffffffffffffffffffffffffffffffff163373ffffffffffffffffffffffffffffffffffffffff161415156200084d57600080fd5b600084101515156200085e57600080fd5b600083101515156200086f57600080fd5b848484306200087d620015f4565b80806020018581526020018481526020018373ffffffffffffffffffffffffffffffffffffffff1673ffffffffffffffffffffffffffffffffffffffff168152602001828103825286818151815260200191508051906020019080838360005b83811015620008fa578082015181840152602081019050620008dd565b50505050905090810190601f168015620009285780820380516001836020036101000a031916815260200191505b5095505050505050604051809103906000f0801580156200094d573d6000803e3d6000fd5b50905060078190806001815401808255809150509060018203906000526020600020016000909192909190916101000a81548173ffffffffffffffffffffffffffffffffffffffff021916908373ffffffffffffffffffffffffffffffffffffffff160217905550506001600654016006819055508073ffffffffffffffffffffffffffffffffffffffff1660405180807f7472616e736665724f776e657273686970286164647265737329000000000000815250601a01905060405180910390207c010000000000000000000000000000000000000000000000000000000090046000809054906101000a900473ffffffffffffffffffffffffffffffffffffffff166040518263ffffffff167c0100000000000000000000000000000000000000000000000000000000028152600401808273ffffffffffffffffffffffffffffffffffffffff1673ffffffffffffffffffffffffffffffffffffffff1681526020019150506000604051808303816000875af192505050151562000ad357600080fd5b828401600560008060009054906101000a900473ffffffffffffffffffffffffffffffffffffffff1673ffffffffffffffffffffffffffffffffffffffff1673ffffffffffffffffffffffffffffffffffffffff16815260200190815260200160002060008373ffffffffffffffffffffffffffffffffffffffff1673ffffffffffffffffffffffffffffffffffffffff16815260200190815260200160002081905550509392505050565b6000600460008573ffffffffffffffffffffffffffffffffffffffff1673ffffffffffffffffffffffffffffffffffffffff16815260200190815260200160002054821115151562000bd057600080fd5b600560008573ffffffffffffffffffffffffffffffffffffffff1673ffffffffffffffffffffffffffffffffffffffff16815260200190815260200160002060003373ffffffffffffffffffffffffffffffffffffffff1673ffffffffffffffffffffffffffffffffffffffff16815260200190815260200160002054821115151562000c5c57600080fd5b600073ffffffffffffffffffffffffffffffffffffffff168373ffffffffffffffffffffffffffffffffffffffff161415151562000c9957600080fd5b62000ced82600460008773ffffffffffffffffffffffffffffffffffffffff1673ffffffffffffffffffffffffffffffffffffffff16815260200190815260200160002054620014c290919063ffffffff16565b600460008673ffffffffffffffffffffffffffffffffffffffff1673ffffffffffffffffffffffffffffffffffffffff1681526020019081526020016000208190555062000d8482600460008673ffffffffffffffffffffffffffffffffffffffff1673ffffffffffffffffffffffffffffffffffffffff16815260200190815260200160002054620014dc90919063ffffffff16565b600460008573ffffffffffffffffffffffffffffffffffffffff1673ffffffffffffffffffffffffffffffffffffffff1681526020019081526020016000208190555062000e5882600560008773ffffffffffffffffffffffffffffffffffffffff1673ffffffffffffffffffffffffffffffffffffffff16815260200190815260200160002060003373ffffffffffffffffffffffffffffffffffffffff1673ffffffffffffffffffffffffffffffffffffffff16815260200190815260200160002054620014c290919063ffffffff16565b600560008673ffffffffffffffffffffffffffffffffffffffff1673ffffffffffffffffffffffffffffffffffffffff16815260200190815260200160002060003373ffffffffffffffffffffffffffffffffffffffff1673ffffffffffffffffffffffffffffffffffffffff168152602001908152602001600020819055508273ffffffffffffffffffffffffffffffffffffffff168473ffffffffffffffffffffffffffffffffffffffff167fddf252ad1be2c89b69c2b068fc378daa952ba7f163c4a11628f55a4df523b3ef846040518082815260200191505060405180910390a3600190509392505050565b60035481565b60065481565b60078181548110151562000f6457fe5b906000526020600020016000915054906101000a900473ffffffffffffffffffffffffffffffffffffffff1681565b6000600460008373ffffffffffffffffffffffffffffffffffffffff1673ffffffffffffffffffffffffffffffffffffffff168152602001908152602001600020549050919050565b6000809054906101000a900473ffffffffffffffffffffffffffffffffffffffff1673ffffffffffffffffffffffffffffffffffffffff163373ffffffffffffffffffffffffffffffffffffffff161415156200103857600080fd5b6000809054906101000a900473ffffffffffffffffffffffffffffffffffffffff1673ffffffffffffffffffffffffffffffffffffffff167ff8df31144d9c2f0f6b59d69b8b98abd5459d07f2742c4df920b25aae33c6482060405160405180910390a260008060006101000a81548173ffffffffffffffffffffffffffffffffffffffff021916908373ffffffffffffffffffffffffffffffffffffffff160217905550565b6000809054906101000a900473ffffffffffffffffffffffffffffffffffffffff1681565b60028054600181600116156101000203166002900480601f0160208091040260200160405190810160405280929190818152602001828054600181600116156101000203166002900480156200119e5780601f1062001172576101008083540402835291602001916200119e565b820191906000526020600020905b8154815290600101906020018083116200118057829003601f168201915b505050505081565b6000600460003373ffffffffffffffffffffffffffffffffffffffff1673ffffffffffffffffffffffffffffffffffffffff168152602001908152602001600020548211151515620011f757600080fd5b600073ffffffffffffffffffffffffffffffffffffffff168373ffffffffffffffffffffffffffffffffffffffff16141515156200123457600080fd5b6200128882600460003373ffffffffffffffffffffffffffffffffffffffff1673ffffffffffffffffffffffffffffffffffffffff16815260200190815260200160002054620014c290919063ffffffff16565b600460003373ffffffffffffffffffffffffffffffffffffffff1673ffffffffffffffffffffffffffffffffffffffff168152602001908152602001600020819055506200131f82600460008673ffffffffffffffffffffffffffffffffffffffff1673ffffffffffffffffffffffffffffffffffffffff16815260200190815260200160002054620014dc90919063ffffffff16565b600460008573ffffffffffffffffffffffffffffffffffffffff1673ffffffffffffffffffffffffffffffffffffffff168152602001908152602001600020819055508273ffffffffffffffffffffffffffffffffffffffff163373ffffffffffffffffffffffffffffffffffffffff167fddf252ad1be2c89b69c2b068fc378daa952ba7f163c4a11628f55a4df523b3ef846040518082815260200191505060405180910390a36001905092915050565b6000600560008473ffffffffffffffffffffffffffffffffffffffff1673ffffffffffffffffffffffffffffffffffffffff16815260200190815260200160002060008373ffffffffffffffffffffffffffffffffffffffff1673ffffffffffffffffffffffffffffffffffffffff16815260200190815260200160002054905092915050565b6000809054906101000a900473ffffffffffffffffffffffffffffffffffffffff1673ffffffffffffffffffffffffffffffffffffffff163373ffffffffffffffffffffffffffffffffffffffff16141515620014b457600080fd5b620014bf81620014f9565b50565b6000828211151515620014d157fe5b818303905092915050565b60008183019050828110151515620014f057fe5b80905092915050565b600073ffffffffffffffffffffffffffffffffffffffff168173ffffffffffffffffffffffffffffffffffffffff16141515156200153657600080fd5b8073ffffffffffffffffffffffffffffffffffffffff166000809054906101000a900473ffffffffffffffffffffffffffffffffffffffff1673ffffffffffffffffffffffffffffffffffffffff167f8be0079c531659141344cd1fd0a4f28419497f9722a3daafe3b4186f6b6457e060405160405180910390a3806000806101000a81548173ffffffffffffffffffffffffffffffffffffffff021916908373ffffffffffffffffffffffffffffffffffffffff16021790555050565b604051611c20806200160683390190560060806040526000600560006101000a81548160ff0219169083151502179055506000600560016101000a81548160ff0219169083151502179055506000600760006101000a81548160ff0219169083151502179055506000600760016101000a81548160ff021916908315150217905550600060085560006009553480156200008757600080fd5b5060405162001c2038038062001c2083398101806040528101908080518201929190602001805190602001909291908051906020019092919080519060200190929190505050336000806101000a81548173ffffffffffffffffffffffffffffffffffffffff021916908373ffffffffffffffffffffffffffffffffffffffff160217905550600073ffffffffffffffffffffffffffffffffffffffff168173ffffffffffffffffffffffffffffffffffffffff16141515156200014a57600080fd5b600083101515156200015b57600080fd5b600082101515156200016c57600080fd5b600084511115156200017d57600080fd5b836001908051906020019062000195929190620001ef565b50826004819055508160068190555080600260006101000a81548173ffffffffffffffffffffffffffffffffffffffff021916908373ffffffffffffffffffffffffffffffffffffffff160217905550505050506200029e565b828054600181600116156101000203166002900490600052602060002090601f016020900481019282601f106200023257805160ff191683800117855562000263565b8280016001018555821562000263579182015b828111156200026257825182559160200191906001019062000245565b5b50905062000272919062000276565b5090565b6200029b91905b80821115620002975760008160009055506001016200027d565b5090565b90565b61197280620002ae6000396000f300608060405260043610610149576000357c0100000000000000000000000000000000000000000000000000000000900463ffffffff1680632124e4cc1461014e5780633804f0c0146101fb5780633a77c91a146102265780633a8bae841461028f5780633cf96af1146102a65780634a990c8b146102fd578063537dbb451461032c5780635a319a3a1461039557806361513264146103fe578063688e043314610471578063715018a6146104a057806372e0576a146104b757806379bd45111461050e578063856ff264146105775780638b65e252146105a65780638da5cb5b146105bd5780638fc3ceb414610614578063a66ba55114610643578063b74c379b14610686578063c0bcec46146106c9578063cde5b4e1146106f4578063d1a1542c1461074b578063d546c33d14610776578063f2fde38b146107df578063f7222aad14610822575b600080fd5b34801561015a57600080fd5b50610179600480360381019080803590602001909291905050506108b2565b6040518080602001838152602001828103825284818151815260200191508051906020019080838360005b838110156101bf5780820151818401526020810190506101a4565b50505050905090810190601f1680156101ec5780820380516001836020036101000a031916815260200191505b50935050505060405180910390f35b34801561020757600080fd5b5061021061096e565b6040518082815260200191505060405180910390f35b34801561023257600080fd5b5061028d600480360381019080803590602001908201803590602001908080601f0160208091040260200160405190810160405280939291908181526020018383808284378201915050505050509192919290505050610974565b005b34801561029b57600080fd5b506102a4610bba565b005b3480156102b257600080fd5b506102bb610d5d565b604051808273ffffffffffffffffffffffffffffffffffffffff1673ffffffffffffffffffffffffffffffffffffffff16815260200191505060405180910390f35b34801561030957600080fd5b50610312610d83565b604051808215151515815260200191505060405180910390f35b34801561033857600080fd5b50610393600480360381019080803590602001908201803590602001908080601f0160208091040260200160405190810160405280939291908181526020018383808284378201915050505050509192919290505050610d96565b005b3480156103a157600080fd5b506103fc600480360381019080803590602001908201803590602001908080601f0160208091040260200160405190810160405280939291908181526020018383808284378201915050505050509192919290505050610e2b565b005b34801561040a57600080fd5b5061046f600480360381019080803590602001908201803590602001908080601f016020809104026020016040519081016040528093929190818152602001838380828437820191505050505050919291929080359060200190929190505050610ee1565b005b34801561047d57600080fd5b50610486610f7e565b604051808215151515815260200191505060405180910390f35b3480156104ac57600080fd5b506104b5610f91565b005b3480156104c357600080fd5b506104cc611093565b604051808273ffffffffffffffffffffffffffffffffffffffff1673ffffffffffffffffffffffffffffffffffffffff16815260200191505060405180910390f35b34801561051a57600080fd5b50610575600480360381019080803590602001908201803590602001908080601f01602080910402602001604051908101604052809392919081815260200183838082843782019150505050505091929192905050506110b9565b005b34801561058357600080fd5b5061058c61116f565b604051808215151515815260200191505060405180910390f35b3480156105b257600080fd5b506105bb611182565b005b3480156105c957600080fd5b506105d2611322565b604051808273ffffffffffffffffffffffffffffffffffffffff1673ffffffffffffffffffffffffffffffffffffffff16815260200191505060405180910390f35b34801561062057600080fd5b50610629611347565b604051808215151515815260200191505060405180910390f35b34801561064f57600080fd5b50610684600480360381019080803573ffffffffffffffffffffffffffffffffffffffff16906020019092919050505061135a565b005b34801561069257600080fd5b506106c7600480360381019080803573ffffffffffffffffffffffffffffffffffffffff169060200190929190505050611457565b005b3480156106d557600080fd5b506106de611554565b6040518082815260200191505060405180910390f35b34801561070057600080fd5b5061070961155a565b604051808273ffffffffffffffffffffffffffffffffffffffff1673ffffffffffffffffffffffffffffffffffffffff16815260200191505060405180910390f35b34801561075757600080fd5b50610760611580565b6040518082815260200191505060405180910390f35b34801561078257600080fd5b506107dd600480360381019080803590602001908201803590602001908080601f0160208091040260200160405190810160405280939291908181526020018383808284378201915050505050509192919290505050611586565b005b3480156107eb57600080fd5b50610820600480360381019080803573ffffffffffffffffffffffffffffffffffffffff16906020019092919050505061161b565b005b34801561082e57600080fd5b50610837611682565b6040518080602001828103825283818151815260200191508051906020019080838360005b8381101561087757808201518184015260208101905061085c565b50505050905090810190601f1680156108a45780820380516001836020036101000a031916815260200191505b509250505060405180910390f35b600a602052806000526040600020600091509050806000018054600181600116156101000203166002900480601f01602080910402602001604051908101604052809291908181526020018280546001816001161561010002031660029004801561095e5780601f106109335761010080835404028352916020019161095e565b820191906000526020600020905b81548152906001019060200180831161094157829003601f168201915b5050505050908060010154905082565b60045481565b600360009054906101000a900473ffffffffffffffffffffffffffffffffffffffff1673ffffffffffffffffffffffffffffffffffffffff163373ffffffffffffffffffffffffffffffffffffffff161480610a1d5750600560029054906101000a900473ffffffffffffffffffffffffffffffffffffffff1673ffffffffffffffffffffffffffffffffffffffff163373ffffffffffffffffffffffffffffffffffffffff16145b80610a7457506000809054906101000a900473ffffffffffffffffffffffffffffffffffffffff1673ffffffffffffffffffffffffffffffffffffffff163373ffffffffffffffffffffffffffffffffffffffff16145b1515610a7f57600080fd5b6000809054906101000a900473ffffffffffffffffffffffffffffffffffffffff1673ffffffffffffffffffffffffffffffffffffffff163373ffffffffffffffffffffffffffffffffffffffff161415610add5760016008819055505b600360009054906101000a900473ffffffffffffffffffffffffffffffffffffffff1673ffffffffffffffffffffffffffffffffffffffff163373ffffffffffffffffffffffffffffffffffffffff161415610b3c5760026008819055505b600560029054906101000a900473ffffffffffffffffffffffffffffffffffffffff1673ffffffffffffffffffffffffffffffffffffffff163373ffffffffffffffffffffffffffffffffffffffff161415610b9b5760036008819055505b60008151111515610bab57600080fd5b610bb781600854610ee1565b50565b6000809054906101000a900473ffffffffffffffffffffffffffffffffffffffff1673ffffffffffffffffffffffffffffffffffffffff163373ffffffffffffffffffffffffffffffffffffffff16141515610c1557600080fd5b6001600760006101000a81548160ff02191690831515021790551515610c3a57600080fd5b60001515600760019054906101000a900460ff161515141515610c5c57600080fd5b6001600760016101000a81548160ff0219169083151502179055507f2e8f320f26e1408a887da348ca3e09c9a8b4ac4fdf759aaa8fc94bef12bb59296000809054906101000a900473ffffffffffffffffffffffffffffffffffffffff16600560029054906101000a900473ffffffffffffffffffffffffffffffffffffffff16600654604051808473ffffffffffffffffffffffffffffffffffffffff1673ffffffffffffffffffffffffffffffffffffffff1681526020018373ffffffffffffffffffffffffffffffffffffffff1673ffffffffffffffffffffffffffffffffffffffff168152602001828152602001935050505060405180910390a1565b600260009054906101000a900473ffffffffffffffffffffffffffffffffffffffff1681565b600560009054906101000a900460ff1681565b600560029054906101000a900473ffffffffffffffffffffffffffffffffffffffff1673ffffffffffffffffffffffffffffffffffffffff163373ffffffffffffffffffffffffffffffffffffffff16141515610df257600080fd5b60008151111515610e0257600080fd5b6001600760006101000a81548160ff021916908315150217905550610e28816003610ee1565b50565b6000809054906101000a900473ffffffffffffffffffffffffffffffffffffffff1673ffffffffffffffffffffffffffffffffffffffff163373ffffffffffffffffffffffffffffffffffffffff16141515610e8657600080fd5b60011515600760009054906101000a900460ff161515141515610ea857600080fd5b60008151111515610eb857600080fd5b6000600760006101000a81548160ff021916908315150217905550610ede816001610ee1565b50565b604080519081016040528083815260200182815250600b6000820151816000019080519060200190610f1492919061181a565b5060208201518160010155905050600b600a6000600954815260200190815260200160002060008201816000019080546001816001161561010002031660029004610f6092919061189a565b50600182015481600101559050506001600954016009819055505050565b600560019054906101000a900460ff1681565b6000809054906101000a900473ffffffffffffffffffffffffffffffffffffffff1673ffffffffffffffffffffffffffffffffffffffff163373ffffffffffffffffffffffffffffffffffffffff16141515610fec57600080fd5b6000809054906101000a900473ffffffffffffffffffffffffffffffffffffffff1673ffffffffffffffffffffffffffffffffffffffff167ff8df31144d9c2f0f6b59d69b8b98abd5459d07f2742c4df920b25aae33c6482060405160405180910390a260008060006101000a81548173ffffffffffffffffffffffffffffffffffffffff021916908373ffffffffffffffffffffffffffffffffffffffff160217905550565b600560029054906101000a900473ffffffffffffffffffffffffffffffffffffffff1681565b6000809054906101000a900473ffffffffffffffffffffffffffffffffffffffff1673ffffffffffffffffffffffffffffffffffffffff163373ffffffffffffffffffffffffffffffffffffffff1614151561111457600080fd5b60011515600560009054906101000a900460ff16151514151561113657600080fd5b6000815111151561114657600080fd5b6000600560006101000a81548160ff02191690831515021790555061116c816001610ee1565b50565b600760019054906101000a900460ff1681565b6000809054906101000a900473ffffffffffffffffffffffffffffffffffffffff1673ffffffffffffffffffffffffffffffffffffffff163373ffffffffffffffffffffffffffffffffffffffff161415156111dd57600080fd5b60011515600560009054906101000a900460ff1615151415156111ff57600080fd5b60001515600560019054906101000a900460ff16151514151561122157600080fd5b6001600560016101000a81548160ff0219169083151502179055507f2e705641ef3838701162829c9931a82fbb60ea6b84992d297d1654cc31ce0d8b6000809054906101000a900473ffffffffffffffffffffffffffffffffffffffff16600360009054906101000a900473ffffffffffffffffffffffffffffffffffffffff16600454604051808473ffffffffffffffffffffffffffffffffffffffff1673ffffffffffffffffffffffffffffffffffffffff1681526020018373ffffffffffffffffffffffffffffffffffffffff1673ffffffffffffffffffffffffffffffffffffffff168152602001828152602001935050505060405180910390a1565b6000809054906101000a900473ffffffffffffffffffffffffffffffffffffffff1681565b600760009054906101000a900460ff1681565b6000809054906101000a900473ffffffffffffffffffffffffffffffffffffffff1673ffffffffffffffffffffffffffffffffffffffff163373ffffffffffffffffffffffffffffffffffffffff161415156113b557600080fd5b600073ffffffffffffffffffffffffffffffffffffffff168173ffffffffffffffffffffffffffffffffffffffff16141515156113f157600080fd5b60001515600760019054906101000a900460ff16151514151561141357600080fd5b80600560026101000a81548173ffffffffffffffffffffffffffffffffffffffff021916908373ffffffffffffffffffffffffffffffffffffffff16021790555050565b6000809054906101000a900473ffffffffffffffffffffffffffffffffffffffff1673ffffffffffffffffffffffffffffffffffffffff163373ffffffffffffffffffffffffffffffffffffffff161415156114b257600080fd5b600073ffffffffffffffffffffffffffffffffffffffff168173ffffffffffffffffffffffffffffffffffffffff16141515156114ee57600080fd5b60001515600560019054906101000a900460ff16151514151561151057600080fd5b80600360006101000a81548173ffffffffffffffffffffffffffffffffffffffff021916908373ffffffffffffffffffffffffffffffffffffffff16021790555050565b60065481565b600360009054906101000a900473ffffffffffffffffffffffffffffffffffffffff1681565b60095481565b600360009054906101000a900473ffffffffffffffffffffffffffffffffffffffff1673ffffffffffffffffffffffffffffffffffffffff163373ffffffffffffffffffffffffffffffffffffffff161415156115e257600080fd5b600081511115156115f257600080fd5b6001600560006101000a81548160ff021916908315150217905550611618816002610ee1565b50565b6000809054906101000a900473ffffffffffffffffffffffffffffffffffffffff1673ffffffffffffffffffffffffffffffffffffffff163373ffffffffffffffffffffffffffffffffffffffff1614151561167657600080fd5b61167f81611720565b50565b60018054600181600116156101000203166002900480601f0160208091040260200160405190810160405280929190818152602001828054600181600116156101000203166002900480156117185780601f106116ed57610100808354040283529160200191611718565b820191906000526020600020905b8154815290600101906020018083116116fb57829003601f168201915b505050505081565b600073ffffffffffffffffffffffffffffffffffffffff168173ffffffffffffffffffffffffffffffffffffffff161415151561175c57600080fd5b8073ffffffffffffffffffffffffffffffffffffffff166000809054906101000a900473ffffffffffffffffffffffffffffffffffffffff1673ffffffffffffffffffffffffffffffffffffffff167f8be0079c531659141344cd1fd0a4f28419497f9722a3daafe3b4186f6b6457e060405160405180910390a3806000806101000a81548173ffffffffffffffffffffffffffffffffffffffff021916908373ffffffffffffffffffffffffffffffffffffffff16021790555050565b828054600181600116156101000203166002900490600052602060002090601f016020900481019282601f1061185b57805160ff1916838001178555611889565b82800160010185558215611889579182015b8281111561188857825182559160200191906001019061186d565b5b5090506118969190611921565b5090565b828054600181600116156101000203166002900490600052602060002090601f016020900481019282601f106118d35780548555611910565b8280016001018555821561191057600052602060002091601f016020900482015b8281111561190f5782548255916001019190600101906118f4565b5b50905061191d9190611921565b5090565b61194391905b8082111561193f576000816000905550600101611927565b5090565b905600a165627a7a7230582008f30d4f88eafca2011816b56c122ef3c31f52474532b7f15b0a176ab2db36b00029a165627a7a7230582073cbaca9c3f0e3e7a5c5a2e44e05c5a322d5ba056491d6f8e0600b2c1dcbb3da0029",
  "source": "pragma solidity ^0.4.24;\n\n\nimport \"./contracts/math/SafeMath.sol\";\nimport './contracts/ownership/Ownable.sol';\nimport './ProjectTask.sol';\n\n\ncontract ProjectEquity2 is Ownable {\n\n  //------------------------------------------------------------------\n  //how many decimal places each single share has. for example 1000 \n  //means each share can be broken down 1000. So 0.5 means 500\n  //------------------------------------------------------------------\n  string public name;\n  string public symbol;\n  uint public decimals;  \n\n\n  //-------------------------------\n  // Project Balances in token \n  //-------------------------------\n  mapping(address => uint256) internal balances;\n\n  \n  //-------------------------------\n  // Project token allowances \n  //-------------------------------\n  mapping (address => mapping (address => uint256)) internal allowed;\n\n\n  \n  //-------------------------------------------------------------------------------------------\n  // Task management      numberOfTotalTasksInArray contains number of tasks in this project \n  // tasksAddresses is the collection of Tasks\n  //-------------------------------------------------------------------------------------------\n  uint public numberOfTotalTasksInArray = 0;\n  address[] public tasksAddresses;\n  \n  \n  using SafeMath for uint256;\n\n  \n  //--------------------------\n  // Events of this Contract \n  //--------------------------\n  event Transfer(address indexed from, address indexed to, uint256 value);\n  event Approval(address indexed from, address indexed to, uint256 value);\n  \n  \n  \n  \n  //-------------------------------------------------\n  // Contract Constructor \n  //-------------------------------------------------\n  constructor(    address _projectOwner,                            // Project Owner address \n\t\t\t\t  address _incubatorOwnerAddres,                    // Incubator Owner address \n\t\t\t\t  uint _incubatorOwnerPercentageInProject,          // Incubator owner percentage in this project \n\t\t\t\t  address _ventureFusionAddress,                    // VentureFusion owner address \n\t\t\t\t  uint _ventureFusionPercentageInProject,           // VentureFusion percentage in this project \n\t\t\t\t  uint _decimals )                // Division of each share \n  public {\n     require(_projectOwner != address(0));\n\t require(_incubatorOwnerAddres != address(0));\n     require(_ventureFusionAddress != address(0));\n\t require(_incubatorOwnerPercentageInProject >= 0);\n\t require(_ventureFusionPercentageInProject >= 0);\n\t require(_decimals > 0);\n\t \n\t uint totalShares = 100 * _decimals;\n\t balances[_incubatorOwnerAddres] = _incubatorOwnerPercentageInProject;\n\t balances[_ventureFusionAddress] = _ventureFusionPercentageInProject;\n\t balances[_projectOwner] = totalShares.sub(_incubatorOwnerPercentageInProject + _ventureFusionPercentageInProject);\n\t decimals = _decimals;        \n  }\n\n\n\n\n\n  //----------------------------------------------------\n  // Transfer Shares from message sender to recipient\n  //----------------------------------------------------\n  function transfer (\n\taddress _to, \n\tuint256 _value\n  ) \n    public returns (bool) \n  {\n    require(_value <= balances[msg.sender]);\n    require(_to != address(0));\n\n    balances[msg.sender] = balances[msg.sender].sub(_value);\n    balances[_to] = balances[_to].add(_value);\n    emit Transfer(msg.sender, _to, _value);\n    return true;\n  }\n\n\n\n\n\n  //--------------------------------------------------------------------------\n  // Share owner can give rights to spender to spend shares on his behalf \n  //--------------------------------------------------------------------------\n  function approve (\n     address _spender, \n\t uint256 _value\n  ) \n    public returns (bool) \n  {\n    allowed[msg.sender][_spender] = _value;\n    emit Approval(msg.sender, _spender, _value);\n    return true;\n  }\n\n\n\n\n\n  //----------------------------------------------------------------------------\n  // How many shares the spender has rights to spend on behalf of share owner \n  //----------------------------------------------------------------------------\n  function allowance (\n    address _owner,\n    address _spender\n  )\n    public view returns (uint256) \n  {\n     return allowed[_owner][_spender];\n  }\n\n\n  \n  \n  \n\n  //--------------------------------------------------------------------------\n  // Trnasfer share to new recipient by spender\n  //--------------------------------------------------------------------------\n  function transferFrom (\n    address _from,\n    address _to,\n    uint256 _value\n  )\n    public returns (bool)\n  {\n    require(_value <= balances[_from]);\n    require(_value <= allowed[_from][msg.sender]);\n    require(_to != address(0));\n\t\n    balances[_from] = balances[_from].sub(_value);\n    balances[_to] = balances[_to].add(_value);\n    allowed[_from][msg.sender] = allowed[_from][msg.sender].sub(_value);\n    emit Transfer(_from, _to, _value);\n    return true;\n  }\n\n\n\n\n\n  //--------------------------------------------------------------------------\n  // Current Balance of shares \n  //--------------------------------------------------------------------------\n  function balanceOf (\n     address _shareHolder\n  ) \n  public view returns (uint256) \n  {\n     return balances[_shareHolder];\n  }\n\n\n\n\n\n  //----------------------------------------------------------------------------\n  // Launch a new task in this project and keep track this new task contract in \n  // local collection of tasks    only project owner can launch a new task \n  //----------------------------------------------------------------------------\n  function launchNewTask (\n     string _taskTitle,                             // Task title\n\t uint _contributorSharesOffered,                // How many share offered to contributor \n\t uint _evaluatorSharesOffered                   // How many shares offered to evaluator \n  ) onlyOwner\n  public returns (bool)\n  {\n     //TODO Check project owner has required number of token or shares to make trnasfer and some other checks\n\t require(_contributorSharesOffered >= 0);      // Shares can be 0 for contributor \n\t require(_evaluatorSharesOffered >= 0);        // Shares can be 0 for evaluator\n  \n  \n\t //Create a new task contract \n  \t address projectTask = new ProjectTask(_taskTitle, _contributorSharesOffered, _evaluatorSharesOffered, address(this));\n\t \n\t //Add task to local collection and increment number of tasks \n\t tasksAddresses.push(projectTask);\n\t numberOfTotalTasksInArray = numberOfTotalTasksInArray + 1;\n\t \t  \n\t //Transfer ownership of task to project owner\n\t require(projectTask.call(bytes4(keccak256(\"transferOwnership(address)\")), owner));\n\t \n\n\t //TODO  lock certain number of tokens so that project owner cannot use them in other contracts\n\t \n\t \n\t //Give access to certain number tokens to the new task contract so that it can make \n\t //transfers to contributors and evaluator\n\t allowed[owner][projectTask] = _contributorSharesOffered + _evaluatorSharesOffered;\n  }\n\n\n\n\n\n\n}\n",
  "sourcePath": "F:\\Projects\\work\\VF\\blockchain\\contracts\\ProjectEquity2.sol",
  "compiler": {
    "name": "solc",
    "version": "0.4.24+commit.e67f0147.Emscripten.clang"
  },
  "schemaVersion": "2.0.1",
  "updatedAt": "2018-10-21T16:15:19.965Z"
}